{
  "_format": "hh-sol-artifact-1",
  "contractName": "Mixtape",
  "sourceName": "contracts/Mixtape.sol",
  "abi": [
    {
      "inputs": [
        {
          "internalType": "string",
          "name": "baseURI_",
          "type": "string"
        },
        {
          "internalType": "address",
          "name": "_implementation",
          "type": "address"
        }
      ],
      "stateMutability": "nonpayable",
      "type": "constructor"
    },
    {
      "anonymous": false,
      "inputs": [
        {
          "indexed": true,
          "internalType": "address",
          "name": "owner",
          "type": "address"
        },
        {
          "indexed": true,
          "internalType": "address",
          "name": "approved",
          "type": "address"
        },
        {
          "indexed": true,
          "internalType": "uint256",
          "name": "tokenId",
          "type": "uint256"
        }
      ],
      "name": "Approval",
      "type": "event"
    },
    {
      "anonymous": false,
      "inputs": [
        {
          "indexed": true,
          "internalType": "address",
          "name": "owner",
          "type": "address"
        },
        {
          "indexed": true,
          "internalType": "address",
          "name": "operator",
          "type": "address"
        },
        {
          "indexed": false,
          "internalType": "bool",
          "name": "approved",
          "type": "bool"
        }
      ],
      "name": "ApprovalForAll",
      "type": "event"
    },
    {
      "anonymous": false,
      "inputs": [
        {
          "indexed": true,
          "internalType": "address",
          "name": "previousOwner",
          "type": "address"
        },
        {
          "indexed": true,
          "internalType": "address",
          "name": "newOwner",
          "type": "address"
        }
      ],
      "name": "OwnershipTransferred",
      "type": "event"
    },
    {
      "anonymous": false,
      "inputs": [
        {
          "indexed": true,
          "internalType": "address",
          "name": "from",
          "type": "address"
        },
        {
          "indexed": true,
          "internalType": "address",
          "name": "to",
          "type": "address"
        },
        {
          "indexed": true,
          "internalType": "uint256",
          "name": "tokenId",
          "type": "uint256"
        }
      ],
      "name": "Transfer",
      "type": "event"
    },
    {
      "inputs": [],
      "name": "CASSETTE_CREATION_LIMIT",
      "outputs": [
        {
          "internalType": "uint256",
          "name": "",
          "type": "uint256"
        }
      ],
      "stateMutability": "view",
      "type": "function"
    },
    {
      "inputs": [],
      "name": "allCassettesClaimed",
      "outputs": [
        {
          "internalType": "bool",
          "name": "",
          "type": "bool"
        }
      ],
      "stateMutability": "view",
      "type": "function"
    },
    {
      "inputs": [
        {
          "internalType": "address",
          "name": "to",
          "type": "address"
        },
        {
          "internalType": "uint256",
          "name": "tokenId",
          "type": "uint256"
        }
      ],
      "name": "approve",
      "outputs": [],
      "stateMutability": "nonpayable",
      "type": "function"
    },
    {
      "inputs": [
        {
          "internalType": "address",
          "name": "owner",
          "type": "address"
        }
      ],
      "name": "balanceOf",
      "outputs": [
        {
          "internalType": "uint256",
          "name": "",
          "type": "uint256"
        }
      ],
      "stateMutability": "view",
      "type": "function"
    },
    {
      "inputs": [],
      "name": "baseURI",
      "outputs": [
        {
          "internalType": "string",
          "name": "",
          "type": "string"
        }
      ],
      "stateMutability": "view",
      "type": "function"
    },
    {
      "inputs": [],
      "name": "cassettesCreatedCount",
      "outputs": [
        {
          "internalType": "uint256",
          "name": "",
          "type": "uint256"
        }
      ],
      "stateMutability": "view",
      "type": "function"
    },
    {
      "inputs": [],
      "name": "contractCount",
      "outputs": [
        {
          "internalType": "uint256",
          "name": "_value",
          "type": "uint256"
        }
      ],
      "stateMutability": "view",
      "type": "function"
    },
    {
      "inputs": [
        {
          "internalType": "string",
          "name": "_name",
          "type": "string"
        },
        {
          "internalType": "string",
          "name": "_symbol",
          "type": "string"
        }
      ],
      "name": "createSubtapeFactory",
      "outputs": [
        {
          "internalType": "uint256",
          "name": "",
          "type": "uint256"
        }
      ],
      "stateMutability": "nonpayable",
      "type": "function"
    },
    {
      "inputs": [
        {
          "internalType": "uint256",
          "name": "mixtapeId",
          "type": "uint256"
        },
        {
          "internalType": "string",
          "name": "tokenURI",
          "type": "string"
        }
      ],
      "name": "editMixtape",
      "outputs": [],
      "stateMutability": "nonpayable",
      "type": "function"
    },
    {
      "inputs": [
        {
          "internalType": "uint256",
          "name": "tokenId",
          "type": "uint256"
        }
      ],
      "name": "getApproved",
      "outputs": [
        {
          "internalType": "address",
          "name": "",
          "type": "address"
        }
      ],
      "stateMutability": "view",
      "type": "function"
    },
    {
      "inputs": [
        {
          "internalType": "uint256",
          "name": "factoryId",
          "type": "uint256"
        }
      ],
      "name": "getFactoryAtId",
      "outputs": [
        {
          "internalType": "contract SubtapeFactory",
          "name": "",
          "type": "address"
        }
      ],
      "stateMutability": "view",
      "type": "function"
    },
    {
      "inputs": [],
      "name": "implementation",
      "outputs": [
        {
          "internalType": "address",
          "name": "",
          "type": "address"
        }
      ],
      "stateMutability": "view",
      "type": "function"
    },
    {
      "inputs": [
        {
          "internalType": "address",
          "name": "owner",
          "type": "address"
        },
        {
          "internalType": "address",
          "name": "operator",
          "type": "address"
        }
      ],
      "name": "isApprovedForAll",
      "outputs": [
        {
          "internalType": "bool",
          "name": "",
          "type": "bool"
        }
      ],
      "stateMutability": "view",
      "type": "function"
    },
    {
      "inputs": [
        {
          "internalType": "uint256",
          "name": "index",
          "type": "uint256"
        }
      ],
      "name": "isClaimed",
      "outputs": [
        {
          "internalType": "bool",
          "name": "",
          "type": "bool"
        }
      ],
      "stateMutability": "view",
      "type": "function"
    },
    {
      "inputs": [
        {
          "internalType": "uint256",
          "name": "",
          "type": "uint256"
        }
      ],
      "name": "mixes",
      "outputs": [
        {
          "internalType": "uint8",
          "name": "capacity",
          "type": "uint8"
        },
        {
          "internalType": "uint8",
          "name": "quality",
          "type": "uint8"
        },
        {
          "internalType": "uint256",
          "name": "style",
          "type": "uint256"
        }
      ],
      "stateMutability": "view",
      "type": "function"
    },
    {
      "inputs": [],
      "name": "name",
      "outputs": [
        {
          "internalType": "string",
          "name": "",
          "type": "string"
        }
      ],
      "stateMutability": "view",
      "type": "function"
    },
    {
      "inputs": [],
      "name": "owner",
      "outputs": [
        {
          "internalType": "address",
          "name": "",
          "type": "address"
        }
      ],
      "stateMutability": "view",
      "type": "function"
    },
    {
      "inputs": [
        {
          "internalType": "uint256",
          "name": "tokenId",
          "type": "uint256"
        }
      ],
      "name": "ownerOf",
      "outputs": [
        {
          "internalType": "address",
          "name": "",
          "type": "address"
        }
      ],
      "stateMutability": "view",
      "type": "function"
    },
    {
      "inputs": [],
      "name": "renounceOwnership",
      "outputs": [],
      "stateMutability": "nonpayable",
      "type": "function"
    },
    {
      "inputs": [
        {
          "internalType": "address",
          "name": "from",
          "type": "address"
        },
        {
          "internalType": "address",
          "name": "to",
          "type": "address"
        },
        {
          "internalType": "uint256",
          "name": "tokenId",
          "type": "uint256"
        }
      ],
      "name": "safeTransferFrom",
      "outputs": [],
      "stateMutability": "nonpayable",
      "type": "function"
    },
    {
      "inputs": [
        {
          "internalType": "address",
          "name": "from",
          "type": "address"
        },
        {
          "internalType": "address",
          "name": "to",
          "type": "address"
        },
        {
          "internalType": "uint256",
          "name": "tokenId",
          "type": "uint256"
        },
        {
          "internalType": "bytes",
          "name": "_data",
          "type": "bytes"
        }
      ],
      "name": "safeTransferFrom",
      "outputs": [],
      "stateMutability": "nonpayable",
      "type": "function"
    },
    {
      "inputs": [
        {
          "internalType": "address",
          "name": "operator",
          "type": "address"
        },
        {
          "internalType": "bool",
          "name": "approved",
          "type": "bool"
        }
      ],
      "name": "setApprovalForAll",
      "outputs": [],
      "stateMutability": "nonpayable",
      "type": "function"
    },
    {
      "inputs": [
        {
          "internalType": "bytes4",
          "name": "interfaceId",
          "type": "bytes4"
        }
      ],
      "name": "supportsInterface",
      "outputs": [
        {
          "internalType": "bool",
          "name": "",
          "type": "bool"
        }
      ],
      "stateMutability": "view",
      "type": "function"
    },
    {
      "inputs": [],
      "name": "symbol",
      "outputs": [
        {
          "internalType": "string",
          "name": "",
          "type": "string"
        }
      ],
      "stateMutability": "view",
      "type": "function"
    },
    {
      "inputs": [
        {
          "internalType": "uint256",
          "name": "tokenId",
          "type": "uint256"
        }
      ],
      "name": "tokenURI",
      "outputs": [
        {
          "internalType": "string",
          "name": "",
          "type": "string"
        }
      ],
      "stateMutability": "view",
      "type": "function"
    },
    {
      "inputs": [
        {
          "internalType": "address",
          "name": "from",
          "type": "address"
        },
        {
          "internalType": "address",
          "name": "to",
          "type": "address"
        },
        {
          "internalType": "uint256",
          "name": "tokenId",
          "type": "uint256"
        }
      ],
      "name": "transferFrom",
      "outputs": [],
      "stateMutability": "nonpayable",
      "type": "function"
    },
    {
      "inputs": [
        {
          "internalType": "address",
          "name": "newOwner",
          "type": "address"
        }
      ],
      "name": "transferOwnership",
      "outputs": [],
      "stateMutability": "nonpayable",
      "type": "function"
    },
    {
      "inputs": [],
      "name": "withdraw",
      "outputs": [],
      "stateMutability": "nonpayable",
      "type": "function"
    }
  ],
  "bytecode": "0x60806040526000600e60006101000a81548160ff0219169083151502179055503480156200002c57600080fd5b5060405162003eb038038062003eb0833981810160405281019062000052919062000389565b806040518060400160405280600b81526020017f43727970746f20526963680000000000000000000000000000000000000000008152506040518060400160405280600381526020017f44594c00000000000000000000000000000000000000000000000000000000008152508160009080519060200190620000d792919062000244565b508060019080519060200190620000f092919062000244565b50505062000113620001076200017660201b60201c565b6200017e60201b60201c565b80600960006101000a81548173ffffffffffffffffffffffffffffffffffffffff021916908373ffffffffffffffffffffffffffffffffffffffff1602179055505081600b90805190602001906200016d92919062000244565b505050620005c1565b600033905090565b6000600760009054906101000a900473ffffffffffffffffffffffffffffffffffffffff16905081600760006101000a81548173ffffffffffffffffffffffffffffffffffffffff021916908373ffffffffffffffffffffffffffffffffffffffff1602179055508173ffffffffffffffffffffffffffffffffffffffff168173ffffffffffffffffffffffffffffffffffffffff167f8be0079c531659141344cd1fd0a4f28419497f9722a3daafe3b4186f6b6457e060405160405180910390a35050565b8280546200025290620004b8565b90600052602060002090601f016020900481019282620002765760008555620002c2565b82601f106200029157805160ff1916838001178555620002c2565b82800160010185558215620002c2579182015b82811115620002c1578251825591602001919060010190620002a4565b5b509050620002d19190620002d5565b5090565b5b80821115620002f0576000816000905550600101620002d6565b5090565b60006200030b620003058462000418565b620003ef565b9050828152602081018484840111156200032a576200032962000587565b5b6200033784828562000482565b509392505050565b6000815190506200035081620005a7565b92915050565b600082601f8301126200036e576200036d62000582565b5b815162000380848260208601620002f4565b91505092915050565b60008060408385031215620003a357620003a262000591565b5b600083015167ffffffffffffffff811115620003c457620003c36200058c565b5b620003d28582860162000356565b9250506020620003e5858286016200033f565b9150509250929050565b6000620003fb6200040e565b9050620004098282620004ee565b919050565b6000604051905090565b600067ffffffffffffffff82111562000436576200043562000553565b5b620004418262000596565b9050602081019050919050565b60006200045b8262000462565b9050919050565b600073ffffffffffffffffffffffffffffffffffffffff82169050919050565b60005b83811015620004a257808201518184015260208101905062000485565b83811115620004b2576000848401525b50505050565b60006002820490506001821680620004d157607f821691505b60208210811415620004e857620004e762000524565b5b50919050565b620004f98262000596565b810181811067ffffffffffffffff821117156200051b576200051a62000553565b5b80604052505050565b7f4e487b7100000000000000000000000000000000000000000000000000000000600052602260045260246000fd5b7f4e487b7100000000000000000000000000000000000000000000000000000000600052604160045260246000fd5b600080fd5b600080fd5b600080fd5b600080fd5b6000601f19601f8301169050919050565b620005b2816200044e565b8114620005be57600080fd5b50565b6138df80620005d16000396000f3fe608060405234801561001057600080fd5b50600436106101c45760003560e01c8063776e278a116100f9578063a651958e11610097578063b88d4fde11610071578063b88d4fde146104f9578063c87b56dd14610515578063e985e9c514610545578063f2fde38b14610575576101c4565b8063a651958e14610479578063a88de40214610497578063b7dacf66146104c7576101c4565b806395d89b41116100d357806395d89b41146103f15780639e34070f1461040f578063a22cb4651461043f578063a5bc2c9f1461045b576101c4565b8063776e278a146103855780638736381a146103b55780638da5cb5b146103d3576101c4565b80633ccfd60b116101665780636352211e116101405780636352211e146102fd5780636c0360eb1461032d57806370a082311461034b578063715018a61461037b576101c4565b80633ccfd60b146102b957806342842e0e146102c35780635c60da1b146102df576101c4565b8063081812fc116101a2578063081812fc14610235578063095ea7b31461026557806323b872dd146102815780632cdae39b1461029d576101c4565b806301ffc9a7146101c9578063033263e5146101f957806306fdde0314610217575b600080fd5b6101e360048036038101906101de91906124ce565b610591565b6040516101f09190612aea565b60405180910390f35b610201610673565b60405161020e9190612da2565b60405180910390f35b61021f610679565b60405161022c9190612b20565b60405180910390f35b61024f600480360381019061024a91906125a0565b61070b565b60405161025c9190612a3e565b60405180910390f35b61027f600480360381019061027a919061248e565b610790565b005b61029b60048036038101906102969190612378565b6108a8565b005b6102b760048036038101906102b291906125cd565b610908565b005b6102c1610916565b005b6102dd60048036038101906102d89190612378565b6109a5565b005b6102e76109c5565b6040516102f49190612a3e565b60405180910390f35b610317600480360381019061031291906125a0565b6109eb565b6040516103249190612a3e565b60405180910390f35b610335610a9d565b6040516103429190612b20565b60405180910390f35b6103656004803603810190610360919061230b565b610b2b565b6040516103729190612da2565b60405180910390f35b610383610be3565b005b61039f600480360381019061039a9190612528565b610c6b565b6040516103ac9190612da2565b60405180910390f35b6103bd610d56565b6040516103ca9190612da2565b60405180910390f35b6103db610d62565b6040516103e89190612a3e565b60405180910390f35b6103f9610d8c565b6040516104069190612b20565b60405180910390f35b610429600480360381019061042491906125a0565b610e1e565b6040516104369190612aea565b60405180910390f35b6104596004803603810190610454919061244e565b610e74565b005b610463610ff5565b6040516104709190612aea565b60405180910390f35b610481611008565b60405161048e9190612da2565b60405180910390f35b6104b160048036038101906104ac91906125a0565b61100e565b6040516104be9190612b05565b60405180910390f35b6104e160048036038101906104dc91906125a0565b61106c565b6040516104f093929190612dbd565b60405180910390f35b610513600480360381019061050e91906123cb565b6110c0565b005b61052f600480360381019061052a91906125a0565b611122565b60405161053c9190612b20565b60405180910390f35b61055f600480360381019061055a9190612338565b611274565b60405161056c9190612aea565b60405180910390f35b61058f600480360381019061058a919061230b565b611308565b005b60007f80ac58cd000000000000000000000000000000000000000000000000000000007bffffffffffffffffffffffffffffffffffffffffffffffffffffffff1916827bffffffffffffffffffffffffffffffffffffffffffffffffffffffff1916148061065c57507f5b5e139f000000000000000000000000000000000000000000000000000000007bffffffffffffffffffffffffffffffffffffffffffffffffffffffff1916827bffffffffffffffffffffffffffffffffffffffffffffffffffffffff1916145b8061066c575061066b82611400565b5b9050919050565b6103e881565b606060008054610688906130ec565b80601f01602080910402602001604051908101604052809291908181526020018280546106b4906130ec565b80156107015780601f106106d657610100808354040283529160200191610701565b820191906000526020600020905b8154815290600101906020018083116106e457829003601f168201915b5050505050905090565b60006107168261146a565b610755576040517f08c379a000000000000000000000000000000000000000000000000000000000815260040161074c90612ce2565b60405180910390fd5b6004600083815260200190815260200160002060009054906101000a900473ffffffffffffffffffffffffffffffffffffffff169050919050565b600061079b826109eb565b90508073ffffffffffffffffffffffffffffffffffffffff168373ffffffffffffffffffffffffffffffffffffffff16141561080c576040517f08c379a000000000000000000000000000000000000000000000000000000000815260040161080390612d62565b60405180910390fd5b8073ffffffffffffffffffffffffffffffffffffffff1661082b6114d6565b73ffffffffffffffffffffffffffffffffffffffff16148061085a5750610859816108546114d6565b611274565b5b610899576040517f08c379a000000000000000000000000000000000000000000000000000000000815260040161089090612c42565b60405180910390fd5b6108a383836114de565b505050565b6108b96108b36114d6565b82611597565b6108f8576040517f08c379a00000000000000000000000000000000000000000000000000000000081526004016108ef90612d82565b60405180910390fd5b610903838383611675565b505050565b61091282826118d1565b5050565b61091e6114d6565b73ffffffffffffffffffffffffffffffffffffffff1661093c610d62565b73ffffffffffffffffffffffffffffffffffffffff1614610992576040517f08c379a000000000000000000000000000000000000000000000000000000000815260040161098990612d02565b60405180910390fd5b6109a361099d610d62565b47611945565b565b6109c0838383604051806020016040528060008152506110c0565b505050565b600960009054906101000a900473ffffffffffffffffffffffffffffffffffffffff1681565b6000806002600084815260200190815260200160002060009054906101000a900473ffffffffffffffffffffffffffffffffffffffff169050600073ffffffffffffffffffffffffffffffffffffffff168173ffffffffffffffffffffffffffffffffffffffff161415610a94576040517f08c379a0000000000000000000000000000000000000000000000000000000008152600401610a8b90612c82565b60405180910390fd5b80915050919050565b600b8054610aaa906130ec565b80601f0160208091040260200160405190810160405280929190818152602001828054610ad6906130ec565b8015610b235780601f10610af857610100808354040283529160200191610b23565b820191906000526020600020905b815481529060010190602001808311610b0657829003601f168201915b505050505081565b60008073ffffffffffffffffffffffffffffffffffffffff168273ffffffffffffffffffffffffffffffffffffffff161415610b9c576040517f08c379a0000000000000000000000000000000000000000000000000000000008152600401610b9390612c62565b60405180910390fd5b600360008373ffffffffffffffffffffffffffffffffffffffff1673ffffffffffffffffffffffffffffffffffffffff168152602001908152602001600020549050919050565b610beb6114d6565b73ffffffffffffffffffffffffffffffffffffffff16610c09610d62565b73ffffffffffffffffffffffffffffffffffffffff1614610c5f576040517f08c379a0000000000000000000000000000000000000000000000000000000008152600401610c5690612d02565b60405180910390fd5b610c696000611a39565b565b600080610c786008611aff565b90506000610cd0600960009054906101000a900473ffffffffffffffffffffffffffffffffffffffff1683604051602001610cb39190612a23565b604051602081830303815290604052610ccb9061301f565b611b0d565b90508073ffffffffffffffffffffffffffffffffffffffff1663906571473387876040518463ffffffff1660e01b8152600401610d0f93929190612aa5565b600060405180830381600087803b158015610d2957600080fd5b505af1158015610d3d573d6000803e3d6000fd5b50505050610d4b6008611be4565b819250505092915050565b60088060000154905081565b6000600760009054906101000a900473ffffffffffffffffffffffffffffffffffffffff16905090565b606060018054610d9b906130ec565b80601f0160208091040260200160405190810160405280929190818152602001828054610dc7906130ec565b8015610e145780601f10610de957610100808354040283529160200191610e14565b820191906000526020600020905b815481529060010190602001808311610df757829003601f168201915b5050505050905090565b60008061010083610e2f9190612f2f565b9050600061010084610e4191906131a2565b90506000600d60008481526020019081526020016000205490506000826001901b90508081831614945050505050919050565b610e7c6114d6565b73ffffffffffffffffffffffffffffffffffffffff168273ffffffffffffffffffffffffffffffffffffffff161415610eea576040517f08c379a0000000000000000000000000000000000000000000000000000000008152600401610ee190612ba2565b60405180910390fd5b8060056000610ef76114d6565b73ffffffffffffffffffffffffffffffffffffffff1673ffffffffffffffffffffffffffffffffffffffff16815260200190815260200160002060008473ffffffffffffffffffffffffffffffffffffffff1673ffffffffffffffffffffffffffffffffffffffff16815260200190815260200160002060006101000a81548160ff0219169083151502179055508173ffffffffffffffffffffffffffffffffffffffff16610fa46114d6565b73ffffffffffffffffffffffffffffffffffffffff167f17307eab39ab6107e8899845ad3d59bd9653f200f220920489ca2b5937696c3183604051610fe99190612aea565b60405180910390a35050565b600e60009054906101000a900460ff1681565b600c5481565b6000611065600960009054906101000a900473ffffffffffffffffffffffffffffffffffffffff16836040516020016110479190612a23565b60405160208183030381529060405261105f9061301f565b30611bfa565b9050919050565b600f818154811061107c57600080fd5b90600052602060002090600202016000915090508060000160009054906101000a900460ff16908060000160019054906101000a900460ff16908060010154905083565b6110d16110cb6114d6565b83611597565b611110576040517f08c379a000000000000000000000000000000000000000000000000000000000815260040161110790612d82565b60405180910390fd5b61111c84848484611c7a565b50505050565b606061112d8261146a565b61116c576040517f08c379a000000000000000000000000000000000000000000000000000000000815260040161116390612cc2565b60405180910390fd5b600060066000848152602001908152602001600020805461118c906130ec565b80601f01602080910402602001604051908101604052809291908181526020018280546111b8906130ec565b80156112055780601f106111da57610100808354040283529160200191611205565b820191906000526020600020905b8154815290600101906020018083116111e857829003601f168201915b505050505090506000611216611cd6565b905060008151141561122c57819250505061126f565b6000825111156112615780826040516020016112499291906129ea565b6040516020818303038152906040529250505061126f565b61126a84611d68565b925050505b919050565b6000600560008473ffffffffffffffffffffffffffffffffffffffff1673ffffffffffffffffffffffffffffffffffffffff16815260200190815260200160002060008373ffffffffffffffffffffffffffffffffffffffff1673ffffffffffffffffffffffffffffffffffffffff16815260200190815260200160002060009054906101000a900460ff16905092915050565b6113106114d6565b73ffffffffffffffffffffffffffffffffffffffff1661132e610d62565b73ffffffffffffffffffffffffffffffffffffffff1614611384576040517f08c379a000000000000000000000000000000000000000000000000000000000815260040161137b90612d02565b60405180910390fd5b600073ffffffffffffffffffffffffffffffffffffffff168173ffffffffffffffffffffffffffffffffffffffff1614156113f4576040517f08c379a00000000000000000000000000000000000000000000000000000000081526004016113eb90612b62565b60405180910390fd5b6113fd81611a39565b50565b60007f01ffc9a7000000000000000000000000000000000000000000000000000000007bffffffffffffffffffffffffffffffffffffffffffffffffffffffff1916827bffffffffffffffffffffffffffffffffffffffffffffffffffffffff1916149050919050565b60008073ffffffffffffffffffffffffffffffffffffffff166002600084815260200190815260200160002060009054906101000a900473ffffffffffffffffffffffffffffffffffffffff1673ffffffffffffffffffffffffffffffffffffffff1614159050919050565b600033905090565b816004600083815260200190815260200160002060006101000a81548173ffffffffffffffffffffffffffffffffffffffff021916908373ffffffffffffffffffffffffffffffffffffffff160217905550808273ffffffffffffffffffffffffffffffffffffffff16611551836109eb565b73ffffffffffffffffffffffffffffffffffffffff167f8c5be1e5ebec7d5bd14f71427d1e84f3dd0314c0f7b2291e5b200ac8c7c3b92560405160405180910390a45050565b60006115a28261146a565b6115e1576040517f08c379a00000000000000000000000000000000000000000000000000000000081526004016115d890612c22565b60405180910390fd5b60006115ec836109eb565b90508073ffffffffffffffffffffffffffffffffffffffff168473ffffffffffffffffffffffffffffffffffffffff16148061165b57508373ffffffffffffffffffffffffffffffffffffffff166116438461070b565b73ffffffffffffffffffffffffffffffffffffffff16145b8061166c575061166b8185611274565b5b91505092915050565b8273ffffffffffffffffffffffffffffffffffffffff16611695826109eb565b73ffffffffffffffffffffffffffffffffffffffff16146116eb576040517f08c379a00000000000000000000000000000000000000000000000000000000081526004016116e290612d22565b60405180910390fd5b600073ffffffffffffffffffffffffffffffffffffffff168273ffffffffffffffffffffffffffffffffffffffff16141561175b576040517f08c379a000000000000000000000000000000000000000000000000000000000815260040161175290612b82565b60405180910390fd5b611766838383611e0f565b6117716000826114de565b6001600360008573ffffffffffffffffffffffffffffffffffffffff1673ffffffffffffffffffffffffffffffffffffffff16815260200190815260200160002060008282546117c19190612f60565b925050819055506001600360008473ffffffffffffffffffffffffffffffffffffffff1673ffffffffffffffffffffffffffffffffffffffff16815260200190815260200160002060008282546118189190612ed9565b92505081905550816002600083815260200190815260200160002060006101000a81548173ffffffffffffffffffffffffffffffffffffffff021916908373ffffffffffffffffffffffffffffffffffffffff160217905550808273ffffffffffffffffffffffffffffffffffffffff168473ffffffffffffffffffffffffffffffffffffffff167fddf252ad1be2c89b69c2b068fc378daa952ba7f163c4a11628f55a4df523b3ef60405160405180910390a4505050565b6118da8261146a565b611919576040517f08c379a000000000000000000000000000000000000000000000000000000000815260040161191090612ca2565b60405180910390fd5b8060066000848152602001908152602001600020908051906020019061194092919061211f565b505050565b80471015611988576040517f08c379a000000000000000000000000000000000000000000000000000000000815260040161197f90612c02565b60405180910390fd5b60008273ffffffffffffffffffffffffffffffffffffffff16826040516119ae90612a0e565b60006040518083038185875af1925050503d80600081146119eb576040519150601f19603f3d011682016040523d82523d6000602084013e6119f0565b606091505b5050905080611a34576040517f08c379a0000000000000000000000000000000000000000000000000000000008152600401611a2b90612be2565b60405180910390fd5b505050565b6000600760009054906101000a900473ffffffffffffffffffffffffffffffffffffffff16905081600760006101000a81548173ffffffffffffffffffffffffffffffffffffffff021916908373ffffffffffffffffffffffffffffffffffffffff1602179055508173ffffffffffffffffffffffffffffffffffffffff168173ffffffffffffffffffffffffffffffffffffffff167f8be0079c531659141344cd1fd0a4f28419497f9722a3daafe3b4186f6b6457e060405160405180910390a35050565b600081600001549050919050565b60006040517f3d602d80600a3d3981f3363d3d373d3d3d363d7300000000000000000000000081528360601b60148201527f5af43d82803e903d91602b57fd5bf300000000000000000000000000000000006028820152826037826000f5915050600073ffffffffffffffffffffffffffffffffffffffff168173ffffffffffffffffffffffffffffffffffffffff161415611bde576040517f08c379a0000000000000000000000000000000000000000000000000000000008152600401611bd590612bc2565b60405180910390fd5b92915050565b6001816000016000828254019250508190555050565b60006040517f3d602d80600a3d3981f3363d3d373d3d3d363d7300000000000000000000000081528460601b60148201527f5af43d82803e903d91602b57fd5bf3ff0000000000000000000000000000000060288201528260601b603882015283604c82015260378120606c820152605560378201209150509392505050565b611c85848484611675565b611c9184848484611e14565b611cd0576040517f08c379a0000000000000000000000000000000000000000000000000000000008152600401611cc790612b42565b60405180910390fd5b50505050565b6060600b8054611ce5906130ec565b80601f0160208091040260200160405190810160405280929190818152602001828054611d11906130ec565b8015611d5e5780601f10611d3357610100808354040283529160200191611d5e565b820191906000526020600020905b815481529060010190602001808311611d4157829003601f168201915b5050505050905090565b6060611d738261146a565b611db2576040517f08c379a0000000000000000000000000000000000000000000000000000000008152600401611da990612d42565b60405180910390fd5b6000611dbc611cd6565b90506000815111611ddc5760405180602001604052806000815250611e07565b80611de684611fab565b604051602001611df79291906129ea565b6040516020818303038152906040525b915050919050565b505050565b6000611e358473ffffffffffffffffffffffffffffffffffffffff1661210c565b15611f9e578373ffffffffffffffffffffffffffffffffffffffff1663150b7a02611e5e6114d6565b8786866040518563ffffffff1660e01b8152600401611e809493929190612a59565b602060405180830381600087803b158015611e9a57600080fd5b505af1925050508015611ecb57506040513d601f19601f82011682018060405250810190611ec891906124fb565b60015b611f4e573d8060008114611efb576040519150601f19603f3d011682016040523d82523d6000602084013e611f00565b606091505b50600081511415611f46576040517f08c379a0000000000000000000000000000000000000000000000000000000008152600401611f3d90612b42565b60405180910390fd5b805181602001fd5b63150b7a0260e01b7bffffffffffffffffffffffffffffffffffffffffffffffffffffffff1916817bffffffffffffffffffffffffffffffffffffffffffffffffffffffff191614915050611fa3565b600190505b949350505050565b60606000821415611ff3576040518060400160405280600181526020017f30000000000000000000000000000000000000000000000000000000000000008152509050612107565b600082905060005b6000821461202557808061200e9061314f565b915050600a8261201e9190612f2f565b9150611ffb565b60008167ffffffffffffffff8111156120415761204061328f565b5b6040519080825280601f01601f1916602001820160405280156120735781602001600182028036833780820191505090505b5090505b600085146121005760018261208c9190612f60565b9150600a8561209b91906131a2565b60306120a79190612ed9565b60f81b8183815181106120bd576120bc613260565b5b60200101907effffffffffffffffffffffffffffffffffffffffffffffffffffffffffffff1916908160001a905350600a856120f99190612f2f565b9450612077565b8093505050505b919050565b600080823b905060008111915050919050565b82805461212b906130ec565b90600052602060002090601f01602090048101928261214d5760008555612194565b82601f1061216657805160ff1916838001178555612194565b82800160010185558215612194579182015b82811115612193578251825591602001919060010190612178565b5b5090506121a191906121a5565b5090565b5b808211156121be5760008160009055506001016121a6565b5090565b60006121d56121d084612e19565b612df4565b9050828152602081018484840111156121f1576121f06132d8565b5b6121fc8482856130aa565b509392505050565b600061221761221284612e4a565b612df4565b905082815260208101848484011115612233576122326132d8565b5b61223e8482856130aa565b509392505050565b6000813590506122558161384d565b92915050565b60008135905061226a81613864565b92915050565b60008135905061227f8161387b565b92915050565b6000815190506122948161387b565b92915050565b600082601f8301126122af576122ae6132d3565b5b81356122bf8482602086016121c2565b91505092915050565b600082601f8301126122dd576122dc6132d3565b5b81356122ed848260208601612204565b91505092915050565b60008135905061230581613892565b92915050565b600060208284031215612321576123206132e2565b5b600061232f84828501612246565b91505092915050565b6000806040838503121561234f5761234e6132e2565b5b600061235d85828601612246565b925050602061236e85828601612246565b9150509250929050565b600080600060608486031215612391576123906132e2565b5b600061239f86828701612246565b93505060206123b086828701612246565b92505060406123c1868287016122f6565b9150509250925092565b600080600080608085870312156123e5576123e46132e2565b5b60006123f387828801612246565b945050602061240487828801612246565b9350506040612415878288016122f6565b925050606085013567ffffffffffffffff811115612436576124356132dd565b5b6124428782880161229a565b91505092959194509250565b60008060408385031215612465576124646132e2565b5b600061247385828601612246565b92505060206124848582860161225b565b9150509250929050565b600080604083850312156124a5576124a46132e2565b5b60006124b385828601612246565b92505060206124c4858286016122f6565b9150509250929050565b6000602082840312156124e4576124e36132e2565b5b60006124f284828501612270565b91505092915050565b600060208284031215612511576125106132e2565b5b600061251f84828501612285565b91505092915050565b6000806040838503121561253f5761253e6132e2565b5b600083013567ffffffffffffffff81111561255d5761255c6132dd565b5b612569858286016122c8565b925050602083013567ffffffffffffffff81111561258a576125896132dd565b5b612596858286016122c8565b9150509250929050565b6000602082840312156125b6576125b56132e2565b5b60006125c4848285016122f6565b91505092915050565b600080604083850312156125e4576125e36132e2565b5b60006125f2858286016122f6565b925050602083013567ffffffffffffffff811115612613576126126132dd565b5b61261f858286016122c8565b9150509250929050565b61263281612f94565b82525050565b61264181612fa6565b82525050565b600061265282612e8b565b61265c8185612ea1565b935061266c8185602086016130b9565b612675816132e7565b840191505092915050565b61268981613086565b82525050565b600061269a82612e96565b6126a48185612ebd565b93506126b48185602086016130b9565b6126bd816132e7565b840191505092915050565b60006126d382612e96565b6126dd8185612ece565b93506126ed8185602086016130b9565b80840191505092915050565b6000612706603283612ebd565b915061271182613305565b604082019050919050565b6000612729602683612ebd565b915061273482613354565b604082019050919050565b600061274c602483612ebd565b9150612757826133a3565b604082019050919050565b600061276f601983612ebd565b915061277a826133f2565b602082019050919050565b6000612792601783612ebd565b915061279d8261341b565b602082019050919050565b60006127b5603a83612ebd565b91506127c082613444565b604082019050919050565b60006127d8601d83612ebd565b91506127e382613493565b602082019050919050565b60006127fb602c83612ebd565b9150612806826134bc565b604082019050919050565b600061281e603883612ebd565b91506128298261350b565b604082019050919050565b6000612841602a83612ebd565b915061284c8261355a565b604082019050919050565b6000612864602983612ebd565b915061286f826135a9565b604082019050919050565b6000612887602e83612ebd565b9150612892826135f8565b604082019050919050565b60006128aa603183612ebd565b91506128b582613647565b604082019050919050565b60006128cd602c83612ebd565b91506128d882613696565b604082019050919050565b60006128f0602083612ebd565b91506128fb826136e5565b602082019050919050565b6000612913602983612ebd565b915061291e8261370e565b604082019050919050565b6000612936602f83612ebd565b91506129418261375d565b604082019050919050565b6000612959602183612ebd565b9150612964826137ac565b604082019050919050565b600061297c600083612eb2565b9150612987826137fb565b600082019050919050565b600061299f603183612ebd565b91506129aa826137fe565b604082019050919050565b6129be81613008565b82525050565b6129d56129d082613008565b613198565b82525050565b6129e481613012565b82525050565b60006129f682856126c8565b9150612a0282846126c8565b91508190509392505050565b6000612a198261296f565b9150819050919050565b6000612a2f82846129c4565b60208201915081905092915050565b6000602082019050612a536000830184612629565b92915050565b6000608082019050612a6e6000830187612629565b612a7b6020830186612629565b612a8860408301856129b5565b8181036060830152612a9a8184612647565b905095945050505050565b6000606082019050612aba6000830186612629565b8181036020830152612acc818561268f565b90508181036040830152612ae0818461268f565b9050949350505050565b6000602082019050612aff6000830184612638565b92915050565b6000602082019050612b1a6000830184612680565b92915050565b60006020820190508181036000830152612b3a818461268f565b905092915050565b60006020820190508181036000830152612b5b816126f9565b9050919050565b60006020820190508181036000830152612b7b8161271c565b9050919050565b60006020820190508181036000830152612b9b8161273f565b9050919050565b60006020820190508181036000830152612bbb81612762565b9050919050565b60006020820190508181036000830152612bdb81612785565b9050919050565b60006020820190508181036000830152612bfb816127a8565b9050919050565b60006020820190508181036000830152612c1b816127cb565b9050919050565b60006020820190508181036000830152612c3b816127ee565b9050919050565b60006020820190508181036000830152612c5b81612811565b9050919050565b60006020820190508181036000830152612c7b81612834565b9050919050565b60006020820190508181036000830152612c9b81612857565b9050919050565b60006020820190508181036000830152612cbb8161287a565b9050919050565b60006020820190508181036000830152612cdb8161289d565b9050919050565b60006020820190508181036000830152612cfb816128c0565b9050919050565b60006020820190508181036000830152612d1b816128e3565b9050919050565b60006020820190508181036000830152612d3b81612906565b9050919050565b60006020820190508181036000830152612d5b81612929565b9050919050565b60006020820190508181036000830152612d7b8161294c565b9050919050565b60006020820190508181036000830152612d9b81612992565b9050919050565b6000602082019050612db760008301846129b5565b92915050565b6000606082019050612dd260008301866129db565b612ddf60208301856129db565b612dec60408301846129b5565b949350505050565b6000612dfe612e0f565b9050612e0a828261311e565b919050565b6000604051905090565b600067ffffffffffffffff821115612e3457612e3361328f565b5b612e3d826132e7565b9050602081019050919050565b600067ffffffffffffffff821115612e6557612e6461328f565b5b612e6e826132e7565b9050602081019050919050565b6000819050602082019050919050565b600081519050919050565b600081519050919050565b600082825260208201905092915050565b600081905092915050565b600082825260208201905092915050565b600081905092915050565b6000612ee482613008565b9150612eef83613008565b9250827fffffffffffffffffffffffffffffffffffffffffffffffffffffffffffffffff03821115612f2457612f236131d3565b5b828201905092915050565b6000612f3a82613008565b9150612f4583613008565b925082612f5557612f54613202565b5b828204905092915050565b6000612f6b82613008565b9150612f7683613008565b925082821015612f8957612f886131d3565b5b828203905092915050565b6000612f9f82612fe8565b9050919050565b60008115159050919050565b6000819050919050565b60007fffffffff0000000000000000000000000000000000000000000000000000000082169050919050565b600073ffffffffffffffffffffffffffffffffffffffff82169050919050565b6000819050919050565b600060ff82169050919050565b600061302a82612e8b565b8261303484612e7b565b905061303f816132be565b9250602082101561307f5761307a7fffffffffffffffffffffffffffffffffffffffffffffffffffffffffffffffff836020036008026132f8565b831692505b5050919050565b600061309182613098565b9050919050565b60006130a382612fe8565b9050919050565b82818337600083830152505050565b60005b838110156130d75780820151818401526020810190506130bc565b838111156130e6576000848401525b50505050565b6000600282049050600182168061310457607f821691505b6020821081141561311857613117613231565b5b50919050565b613127826132e7565b810181811067ffffffffffffffff821117156131465761314561328f565b5b80604052505050565b600061315a82613008565b91507fffffffffffffffffffffffffffffffffffffffffffffffffffffffffffffffff82141561318d5761318c6131d3565b5b600182019050919050565b6000819050919050565b60006131ad82613008565b91506131b883613008565b9250826131c8576131c7613202565b5b828206905092915050565b7f4e487b7100000000000000000000000000000000000000000000000000000000600052601160045260246000fd5b7f4e487b7100000000000000000000000000000000000000000000000000000000600052601260045260246000fd5b7f4e487b7100000000000000000000000000000000000000000000000000000000600052602260045260246000fd5b7f4e487b7100000000000000000000000000000000000000000000000000000000600052603260045260246000fd5b7f4e487b7100000000000000000000000000000000000000000000000000000000600052604160045260246000fd5b60006132ca8251612fb2565b80915050919050565b600080fd5b600080fd5b600080fd5b600080fd5b6000601f19601f8301169050919050565b600082821b905092915050565b7f4552433732313a207472616e7366657220746f206e6f6e20455243373231526560008201527f63656976657220696d706c656d656e7465720000000000000000000000000000602082015250565b7f4f776e61626c653a206e6577206f776e657220697320746865207a65726f206160008201527f6464726573730000000000000000000000000000000000000000000000000000602082015250565b7f4552433732313a207472616e7366657220746f20746865207a65726f2061646460008201527f7265737300000000000000000000000000000000000000000000000000000000602082015250565b7f4552433732313a20617070726f766520746f2063616c6c657200000000000000600082015250565b7f455243313136373a2063726561746532206661696c6564000000000000000000600082015250565b7f416464726573733a20756e61626c6520746f2073656e642076616c75652c207260008201527f6563697069656e74206d61792068617665207265766572746564000000000000602082015250565b7f416464726573733a20696e73756666696369656e742062616c616e6365000000600082015250565b7f4552433732313a206f70657261746f7220717565727920666f72206e6f6e657860008201527f697374656e7420746f6b656e0000000000000000000000000000000000000000602082015250565b7f4552433732313a20617070726f76652063616c6c6572206973206e6f74206f7760008201527f6e6572206e6f7220617070726f76656420666f7220616c6c0000000000000000602082015250565b7f4552433732313a2062616c616e636520717565727920666f7220746865207a6560008201527f726f206164647265737300000000000000000000000000000000000000000000602082015250565b7f4552433732313a206f776e657220717565727920666f72206e6f6e657869737460008201527f656e7420746f6b656e0000000000000000000000000000000000000000000000602082015250565b7f45524337323155524953746f726167653a2055524920736574206f66206e6f6e60008201527f6578697374656e7420746f6b656e000000000000000000000000000000000000602082015250565b7f45524337323155524953746f726167653a2055524920717565727920666f722060008201527f6e6f6e6578697374656e7420746f6b656e000000000000000000000000000000602082015250565b7f4552433732313a20617070726f76656420717565727920666f72206e6f6e657860008201527f697374656e7420746f6b656e0000000000000000000000000000000000000000602082015250565b7f4f776e61626c653a2063616c6c6572206973206e6f7420746865206f776e6572600082015250565b7f4552433732313a207472616e73666572206f6620746f6b656e2074686174206960008201527f73206e6f74206f776e0000000000000000000000000000000000000000000000602082015250565b7f4552433732314d657461646174613a2055524920717565727920666f72206e6f60008201527f6e6578697374656e7420746f6b656e0000000000000000000000000000000000602082015250565b7f4552433732313a20617070726f76616c20746f2063757272656e74206f776e6560008201527f7200000000000000000000000000000000000000000000000000000000000000602082015250565b50565b7f4552433732313a207472616e736665722063616c6c6572206973206e6f74206f60008201527f776e6572206e6f7220617070726f766564000000000000000000000000000000602082015250565b61385681612f94565b811461386157600080fd5b50565b61386d81612fa6565b811461387857600080fd5b50565b61388481612fbc565b811461388f57600080fd5b50565b61389b81613008565b81146138a657600080fd5b5056fea2646970667358221220db09c740e8cdad43fb27c313bc20fc3cbd6dd7cd9601a45a5a07daa0a78f433d64736f6c63430008060033",
  "linkReferences": {},
  "deployedLinkReferences": {}
}