{
  "_format": "hh-sol-artifact-1",
  "contractName": "SubtapeFactoryCreator",
  "sourceName": "contracts/SubtapeFactoryCreator.sol",
  "abi": [
    {
      "inputs": [
        {
          "internalType": "address",
          "name": "_implementation",
          "type": "address"
        }
      ],
      "stateMutability": "nonpayable",
      "type": "constructor"
    },
    {
      "inputs": [],
      "name": "contractCount",
      "outputs": [
        {
          "internalType": "uint256",
          "name": "_value",
          "type": "uint256"
        }
      ],
      "stateMutability": "view",
      "type": "function"
    },
    {
      "inputs": [
        {
          "internalType": "string",
          "name": "_name",
          "type": "string"
        },
        {
          "internalType": "string",
          "name": "_symbol",
          "type": "string"
        }
      ],
      "name": "createSubtapeFactory",
      "outputs": [
        {
          "internalType": "uint256",
          "name": "",
          "type": "uint256"
        }
      ],
      "stateMutability": "nonpayable",
      "type": "function"
    },
    {
      "inputs": [
        {
          "internalType": "uint256",
          "name": "factoryId",
          "type": "uint256"
        }
      ],
      "name": "getFactoryAtId",
      "outputs": [
        {
          "internalType": "contract SubtapeFactory",
          "name": "",
          "type": "address"
        }
      ],
      "stateMutability": "view",
      "type": "function"
    },
    {
      "inputs": [],
      "name": "implementation",
      "outputs": [
        {
          "internalType": "address",
          "name": "",
          "type": "address"
        }
      ],
      "stateMutability": "view",
      "type": "function"
    }
  ],
  "bytecode": "0x608060405234801561001057600080fd5b50604051610a5d380380610a5d8339818101604052810190610032919061008e565b80600160006101000a81548173ffffffffffffffffffffffffffffffffffffffff021916908373ffffffffffffffffffffffffffffffffffffffff16021790555050610109565b600081519050610088816100f2565b92915050565b6000602082840312156100a4576100a36100ed565b5b60006100b284828501610079565b91505092915050565b60006100c6826100cd565b9050919050565b600073ffffffffffffffffffffffffffffffffffffffff82169050919050565b600080fd5b6100fb816100bb565b811461010657600080fd5b50565b610945806101186000396000f3fe608060405234801561001057600080fd5b506004361061004c5760003560e01c80635c60da1b14610051578063776e278a1461006f5780638736381a1461009f578063a88de402146100bd575b600080fd5b6100596100ed565b60405161006691906105c8565b60405180910390f35b61008960048036038101906100849190610468565b610113565b6040516100969190610663565b60405180910390f35b6100a76101fe565b6040516100b49190610663565b60405180910390f35b6100d760048036038101906100d291906104e0565b61020a565b6040516100e49190610628565b60405180910390f35b600160009054906101000a900473ffffffffffffffffffffffffffffffffffffffff1681565b6000806101206000610268565b90506000610178600160009054906101000a900473ffffffffffffffffffffffffffffffffffffffff168360405160200161015b91906105ad565b60405160208183030381529060405261017390610751565b610276565b90508073ffffffffffffffffffffffffffffffffffffffff1663906571473387876040518463ffffffff1660e01b81526004016101b7939291906105e3565b600060405180830381600087803b1580156101d157600080fd5b505af11580156101e5573d6000803e3d6000fd5b505050506101f3600061034d565b819250505092915050565b60008060000154905081565b6000610261600160009054906101000a900473ffffffffffffffffffffffffffffffffffffffff168360405160200161024391906105ad565b60405160208183030381529060405261025b90610751565b30610363565b9050919050565b600081600001549050919050565b60006040517f3d602d80600a3d3981f3363d3d373d3d3d363d7300000000000000000000000081528360601b60148201527f5af43d82803e903d91602b57fd5bf300000000000000000000000000000000006028820152826037826000f5915050600073ffffffffffffffffffffffffffffffffffffffff168173ffffffffffffffffffffffffffffffffffffffff161415610347576040517f08c379a000000000000000000000000000000000000000000000000000000000815260040161033e90610643565b60405180910390fd5b92915050565b6001816000016000828254019250508190555050565b60006040517f3d602d80600a3d3981f3363d3d373d3d3d363d7300000000000000000000000081528460601b60148201527f5af43d82803e903d91602b57fd5bf3ff0000000000000000000000000000000060288201528260601b603882015283604c82015260378120606c820152605560378201209150509392505050565b60006103f66103f1846106a3565b61067e565b905082815260208101848484011115610412576104116108a2565b5b61041d8482856107dc565b509392505050565b600082601f83011261043a5761043961089d565b5b813561044a8482602086016103e3565b91505092915050565b600081359050610462816108f8565b92915050565b6000806040838503121561047f5761047e6108ac565b5b600083013567ffffffffffffffff81111561049d5761049c6108a7565b5b6104a985828601610425565b925050602083013567ffffffffffffffff8111156104ca576104c96108a7565b5b6104d685828601610425565b9150509250929050565b6000602082840312156104f6576104f56108ac565b5b600061050484828501610453565b91505092915050565b6105168161070b565b82525050565b610525816107b8565b82525050565b6000610536826106ef565b61054081856106fa565b93506105508185602086016107eb565b610559816108b1565b840191505092915050565b60006105716017836106fa565b915061057c826108cf565b602082019050919050565b61059081610747565b82525050565b6105a76105a282610747565b61084f565b82525050565b60006105b98284610596565b60208201915081905092915050565b60006020820190506105dd600083018461050d565b92915050565b60006060820190506105f8600083018661050d565b818103602083015261060a818561052b565b9050818103604083015261061e818461052b565b9050949350505050565b600060208201905061063d600083018461051c565b92915050565b6000602082019050818103600083015261065c81610564565b9050919050565b60006020820190506106786000830184610587565b92915050565b6000610688610699565b9050610694828261081e565b919050565b6000604051905090565b600067ffffffffffffffff8211156106be576106bd610859565b5b6106c7826108b1565b9050602081019050919050565b6000819050602082019050919050565b600081519050919050565b600081519050919050565b600082825260208201905092915050565b600061071682610727565b9050919050565b6000819050919050565b600073ffffffffffffffffffffffffffffffffffffffff82169050919050565b6000819050919050565b600061075c826106e4565b82610766846106d4565b905061077181610888565b925060208210156107b1576107ac7fffffffffffffffffffffffffffffffffffffffffffffffffffffffffffffffff836020036008026108c2565b831692505b5050919050565b60006107c3826107ca565b9050919050565b60006107d582610727565b9050919050565b82818337600083830152505050565b60005b838110156108095780820151818401526020810190506107ee565b83811115610818576000848401525b50505050565b610827826108b1565b810181811067ffffffffffffffff8211171561084657610845610859565b5b80604052505050565b6000819050919050565b7f4e487b7100000000000000000000000000000000000000000000000000000000600052604160045260246000fd5b6000610894825161071d565b80915050919050565b600080fd5b600080fd5b600080fd5b600080fd5b6000601f19601f8301169050919050565b600082821b905092915050565b7f455243313136373a2063726561746532206661696c6564000000000000000000600082015250565b61090181610747565b811461090c57600080fd5b5056fea264697066735822122051291b0af4e878b7a62aac01304c4edb03028a1d8a371335ff430ac807b0606e64736f6c63430008060033",
  "linkReferences": {},
  "deployedLinkReferences": {}
}