{
  "address": "0x9fE46736679d2D9a65F0992F2272dE9f3c7fa6e0",
  "abi": [
    {
      "inputs": [
        {
          "internalType": "bytes32",
          "name": "merkleRoot_",
          "type": "bytes32"
        },
        {
          "internalType": "string",
          "name": "baseURI_",
          "type": "string"
        },
        {
          "internalType": "address",
          "name": "_implementation",
          "type": "address"
        }
      ],
      "stateMutability": "nonpayable",
      "type": "constructor"
    },
    {
      "anonymous": false,
      "inputs": [
        {
          "indexed": true,
          "internalType": "address",
          "name": "owner",
          "type": "address"
        },
        {
          "indexed": true,
          "internalType": "address",
          "name": "approved",
          "type": "address"
        },
        {
          "indexed": true,
          "internalType": "uint256",
          "name": "tokenId",
          "type": "uint256"
        }
      ],
      "name": "Approval",
      "type": "event"
    },
    {
      "anonymous": false,
      "inputs": [
        {
          "indexed": true,
          "internalType": "address",
          "name": "owner",
          "type": "address"
        },
        {
          "indexed": true,
          "internalType": "address",
          "name": "operator",
          "type": "address"
        },
        {
          "indexed": false,
          "internalType": "bool",
          "name": "approved",
          "type": "bool"
        }
      ],
      "name": "ApprovalForAll",
      "type": "event"
    },
    {
      "anonymous": false,
      "inputs": [
        {
          "indexed": false,
          "internalType": "uint256",
          "name": "index",
          "type": "uint256"
        },
        {
          "indexed": false,
          "internalType": "uint8",
          "name": "capacity",
          "type": "uint8"
        },
        {
          "indexed": false,
          "internalType": "uint8",
          "name": "quality",
          "type": "uint8"
        },
        {
          "indexed": false,
          "internalType": "uint256",
          "name": "style",
          "type": "uint256"
        }
      ],
      "name": "Claimed",
      "type": "event"
    },
    {
      "anonymous": false,
      "inputs": [
        {
          "indexed": true,
          "internalType": "address",
          "name": "previousOwner",
          "type": "address"
        },
        {
          "indexed": true,
          "internalType": "address",
          "name": "newOwner",
          "type": "address"
        }
      ],
      "name": "OwnershipTransferred",
      "type": "event"
    },
    {
      "anonymous": false,
      "inputs": [
        {
          "indexed": true,
          "internalType": "address",
          "name": "from",
          "type": "address"
        },
        {
          "indexed": true,
          "internalType": "address",
          "name": "to",
          "type": "address"
        },
        {
          "indexed": true,
          "internalType": "uint256",
          "name": "tokenId",
          "type": "uint256"
        }
      ],
      "name": "Transfer",
      "type": "event"
    },
    {
      "inputs": [],
      "name": "CASSETTE_CREATION_LIMIT",
      "outputs": [
        {
          "internalType": "uint256",
          "name": "",
          "type": "uint256"
        }
      ],
      "stateMutability": "view",
      "type": "function"
    },
    {
      "inputs": [],
      "name": "allCassettesClaimed",
      "outputs": [
        {
          "internalType": "bool",
          "name": "",
          "type": "bool"
        }
      ],
      "stateMutability": "view",
      "type": "function"
    },
    {
      "inputs": [
        {
          "internalType": "address",
          "name": "to",
          "type": "address"
        },
        {
          "internalType": "uint256",
          "name": "tokenId",
          "type": "uint256"
        }
      ],
      "name": "approve",
      "outputs": [],
      "stateMutability": "nonpayable",
      "type": "function"
    },
    {
      "inputs": [
        {
          "internalType": "address",
          "name": "owner",
          "type": "address"
        }
      ],
      "name": "balanceOf",
      "outputs": [
        {
          "internalType": "uint256",
          "name": "",
          "type": "uint256"
        }
      ],
      "stateMutability": "view",
      "type": "function"
    },
    {
      "inputs": [],
      "name": "baseURI",
      "outputs": [
        {
          "internalType": "string",
          "name": "",
          "type": "string"
        }
      ],
      "stateMutability": "view",
      "type": "function"
    },
    {
      "inputs": [],
      "name": "cassettesCreatedCount",
      "outputs": [
        {
          "internalType": "uint256",
          "name": "",
          "type": "uint256"
        }
      ],
      "stateMutability": "view",
      "type": "function"
    },
    {
      "inputs": [
        {
          "internalType": "uint256",
          "name": "index",
          "type": "uint256"
        },
        {
          "internalType": "uint8",
          "name": "capacity",
          "type": "uint8"
        },
        {
          "internalType": "uint8",
          "name": "quality",
          "type": "uint8"
        },
        {
          "internalType": "uint256",
          "name": "style",
          "type": "uint256"
        },
        {
          "internalType": "bytes32[]",
          "name": "merkleProof",
          "type": "bytes32[]"
        },
        {
          "internalType": "string",
          "name": "tokenURI",
          "type": "string"
        }
      ],
      "name": "claim",
      "outputs": [],
      "stateMutability": "payable",
      "type": "function"
    },
    {
      "inputs": [],
      "name": "contractCount",
      "outputs": [
        {
          "internalType": "uint256",
          "name": "_value",
          "type": "uint256"
        }
      ],
      "stateMutability": "view",
      "type": "function"
    },
    {
      "inputs": [
        {
          "internalType": "string",
          "name": "_name",
          "type": "string"
        },
        {
          "internalType": "string",
          "name": "_symbol",
          "type": "string"
        }
      ],
      "name": "createSubtapeFactory",
      "outputs": [
        {
          "internalType": "uint256",
          "name": "",
          "type": "uint256"
        }
      ],
      "stateMutability": "nonpayable",
      "type": "function"
    },
    {
      "inputs": [
        {
          "internalType": "uint256",
          "name": "mixtapeId",
          "type": "uint256"
        },
        {
          "internalType": "string",
          "name": "tokenURI",
          "type": "string"
        }
      ],
      "name": "editMixtape",
      "outputs": [],
      "stateMutability": "nonpayable",
      "type": "function"
    },
    {
      "inputs": [
        {
          "internalType": "uint256",
          "name": "tokenId",
          "type": "uint256"
        }
      ],
      "name": "getApproved",
      "outputs": [
        {
          "internalType": "address",
          "name": "",
          "type": "address"
        }
      ],
      "stateMutability": "view",
      "type": "function"
    },
    {
      "inputs": [
        {
          "internalType": "uint256",
          "name": "factoryId",
          "type": "uint256"
        }
      ],
      "name": "getFactoryAtId",
      "outputs": [
        {
          "internalType": "contract SubtapeFactory",
          "name": "",
          "type": "address"
        }
      ],
      "stateMutability": "view",
      "type": "function"
    },
    {
      "inputs": [],
      "name": "implementation",
      "outputs": [
        {
          "internalType": "address",
          "name": "",
          "type": "address"
        }
      ],
      "stateMutability": "view",
      "type": "function"
    },
    {
      "inputs": [
        {
          "internalType": "address",
          "name": "owner",
          "type": "address"
        },
        {
          "internalType": "address",
          "name": "operator",
          "type": "address"
        }
      ],
      "name": "isApprovedForAll",
      "outputs": [
        {
          "internalType": "bool",
          "name": "",
          "type": "bool"
        }
      ],
      "stateMutability": "view",
      "type": "function"
    },
    {
      "inputs": [
        {
          "internalType": "uint256",
          "name": "index",
          "type": "uint256"
        }
      ],
      "name": "isClaimed",
      "outputs": [
        {
          "internalType": "bool",
          "name": "",
          "type": "bool"
        }
      ],
      "stateMutability": "view",
      "type": "function"
    },
    {
      "inputs": [],
      "name": "merkleRoot",
      "outputs": [
        {
          "internalType": "bytes32",
          "name": "",
          "type": "bytes32"
        }
      ],
      "stateMutability": "view",
      "type": "function"
    },
    {
      "inputs": [
        {
          "internalType": "uint256",
          "name": "",
          "type": "uint256"
        }
      ],
      "name": "mixes",
      "outputs": [
        {
          "internalType": "uint8",
          "name": "capacity",
          "type": "uint8"
        },
        {
          "internalType": "uint8",
          "name": "quality",
          "type": "uint8"
        },
        {
          "internalType": "uint256",
          "name": "style",
          "type": "uint256"
        }
      ],
      "stateMutability": "view",
      "type": "function"
    },
    {
      "inputs": [],
      "name": "name",
      "outputs": [
        {
          "internalType": "string",
          "name": "",
          "type": "string"
        }
      ],
      "stateMutability": "view",
      "type": "function"
    },
    {
      "inputs": [],
      "name": "owner",
      "outputs": [
        {
          "internalType": "address",
          "name": "",
          "type": "address"
        }
      ],
      "stateMutability": "view",
      "type": "function"
    },
    {
      "inputs": [
        {
          "internalType": "uint256",
          "name": "tokenId",
          "type": "uint256"
        }
      ],
      "name": "ownerOf",
      "outputs": [
        {
          "internalType": "address",
          "name": "",
          "type": "address"
        }
      ],
      "stateMutability": "view",
      "type": "function"
    },
    {
      "inputs": [],
      "name": "renounceOwnership",
      "outputs": [],
      "stateMutability": "nonpayable",
      "type": "function"
    },
    {
      "inputs": [
        {
          "internalType": "address",
          "name": "from",
          "type": "address"
        },
        {
          "internalType": "address",
          "name": "to",
          "type": "address"
        },
        {
          "internalType": "uint256",
          "name": "tokenId",
          "type": "uint256"
        }
      ],
      "name": "safeTransferFrom",
      "outputs": [],
      "stateMutability": "nonpayable",
      "type": "function"
    },
    {
      "inputs": [
        {
          "internalType": "address",
          "name": "from",
          "type": "address"
        },
        {
          "internalType": "address",
          "name": "to",
          "type": "address"
        },
        {
          "internalType": "uint256",
          "name": "tokenId",
          "type": "uint256"
        },
        {
          "internalType": "bytes",
          "name": "_data",
          "type": "bytes"
        }
      ],
      "name": "safeTransferFrom",
      "outputs": [],
      "stateMutability": "nonpayable",
      "type": "function"
    },
    {
      "inputs": [
        {
          "internalType": "address",
          "name": "operator",
          "type": "address"
        },
        {
          "internalType": "bool",
          "name": "approved",
          "type": "bool"
        }
      ],
      "name": "setApprovalForAll",
      "outputs": [],
      "stateMutability": "nonpayable",
      "type": "function"
    },
    {
      "inputs": [
        {
          "internalType": "bytes4",
          "name": "interfaceId",
          "type": "bytes4"
        }
      ],
      "name": "supportsInterface",
      "outputs": [
        {
          "internalType": "bool",
          "name": "",
          "type": "bool"
        }
      ],
      "stateMutability": "view",
      "type": "function"
    },
    {
      "inputs": [],
      "name": "symbol",
      "outputs": [
        {
          "internalType": "string",
          "name": "",
          "type": "string"
        }
      ],
      "stateMutability": "view",
      "type": "function"
    },
    {
      "inputs": [
        {
          "internalType": "uint256",
          "name": "tokenId",
          "type": "uint256"
        }
      ],
      "name": "tokenURI",
      "outputs": [
        {
          "internalType": "string",
          "name": "",
          "type": "string"
        }
      ],
      "stateMutability": "view",
      "type": "function"
    },
    {
      "inputs": [
        {
          "internalType": "address",
          "name": "from",
          "type": "address"
        },
        {
          "internalType": "address",
          "name": "to",
          "type": "address"
        },
        {
          "internalType": "uint256",
          "name": "tokenId",
          "type": "uint256"
        }
      ],
      "name": "transferFrom",
      "outputs": [],
      "stateMutability": "nonpayable",
      "type": "function"
    },
    {
      "inputs": [
        {
          "internalType": "address",
          "name": "newOwner",
          "type": "address"
        }
      ],
      "name": "transferOwnership",
      "outputs": [],
      "stateMutability": "nonpayable",
      "type": "function"
    },
    {
      "inputs": [],
      "name": "withdraw",
      "outputs": [],
      "stateMutability": "nonpayable",
      "type": "function"
    }
  ],
  "transactionHash": "0x161e511bb2c28516c379b4924ba056c60bcda76d469bb7c32765828765757b8f",
  "args": [
    "0x7581d01a4a2487fdf457ac49824d715f080b1caa6212e37571d62411507363c2",
    "https://pinata.cloud",
    "0x5FbDB2315678afecb367f032d93F642f64180aa3"
  ],
  "solcInputHash": "3420a7fdd2614d4e0b14f3c5a502562a",
  "bytecode": "0x60a06040526000600e60006101000a81548160ff0219169083151502179055503480156200002c57600080fd5b5060405162004c6038038062004c608339818101604052810190620000529190620003a9565b806040518060400160405280600781526020017f4e465461706573000000000000000000000000000000000000000000000000008152506040518060400160405280600481526020017f54415045000000000000000000000000000000000000000000000000000000008152508160009080519060200190620000d79291906200024d565b508060019080519060200190620000f09291906200024d565b50505062000113620001076200017f60201b60201c565b6200018760201b60201c565b80600960006101000a81548173ffffffffffffffffffffffffffffffffffffffff021916908373ffffffffffffffffffffffffffffffffffffffff16021790555050826080818152505081600b9080519060200190620001759291906200024d565b505050506200061a565b600033905090565b6000600760009054906101000a900473ffffffffffffffffffffffffffffffffffffffff16905081600760006101000a81548173ffffffffffffffffffffffffffffffffffffffff021916908373ffffffffffffffffffffffffffffffffffffffff1602179055508173ffffffffffffffffffffffffffffffffffffffff168173ffffffffffffffffffffffffffffffffffffffff167f8be0079c531659141344cd1fd0a4f28419497f9722a3daafe3b4186f6b6457e060405160405180910390a35050565b8280546200025b90620004f7565b90600052602060002090601f0160209004810192826200027f5760008555620002cb565b82601f106200029a57805160ff1916838001178555620002cb565b82800160010185558215620002cb579182015b82811115620002ca578251825591602001919060010190620002ad565b5b509050620002da9190620002de565b5090565b5b80821115620002f9576000816000905550600101620002df565b5090565b6000620003146200030e846200044d565b62000424565b905082815260208101848484011115620003335762000332620005c6565b5b62000340848285620004c1565b509392505050565b6000815190506200035981620005e6565b92915050565b600081519050620003708162000600565b92915050565b600082601f8301126200038e576200038d620005c1565b5b8151620003a0848260208601620002fd565b91505092915050565b600080600060608486031215620003c557620003c4620005d0565b5b6000620003d5868287016200035f565b935050602084015167ffffffffffffffff811115620003f957620003f8620005cb565b5b620004078682870162000376565b92505060406200041a8682870162000348565b9150509250925092565b60006200043062000443565b90506200043e82826200052d565b919050565b6000604051905090565b600067ffffffffffffffff8211156200046b576200046a62000592565b5b6200047682620005d5565b9050602081019050919050565b60006200049082620004a1565b9050919050565b6000819050919050565b600073ffffffffffffffffffffffffffffffffffffffff82169050919050565b60005b83811015620004e1578082015181840152602081019050620004c4565b83811115620004f1576000848401525b50505050565b600060028204905060018216806200051057607f821691505b6020821081141562000527576200052662000563565b5b50919050565b6200053882620005d5565b810181811067ffffffffffffffff821117156200055a576200055962000592565b5b80604052505050565b7f4e487b7100000000000000000000000000000000000000000000000000000000600052602260045260246000fd5b7f4e487b7100000000000000000000000000000000000000000000000000000000600052604160045260246000fd5b600080fd5b600080fd5b600080fd5b600080fd5b6000601f19601f8301169050919050565b620005f18162000483565b8114620005fd57600080fd5b50565b6200060b8162000497565b81146200061757600080fd5b50565b6080516146236200063d60003960008181610ad40152610d1d01526146236000f3fe6080604052600436106101cd5760003560e01c8063715018a6116100f7578063a5bc2c9f11610095578063b88d4fde11610064578063b88d4fde14610681578063c87b56dd146106aa578063e985e9c5146106e7578063f2fde38b14610724576101cd565b8063a5bc2c9f146105af578063a651958e146105da578063a88de40214610605578063b7dacf6614610642576101cd565b80638da5cb5b116100d15780638da5cb5b146104f357806395d89b411461051e5780639e34070f14610549578063a22cb46514610586576101cd565b8063715018a614610474578063776e278a1461048b5780638736381a146104c8576101cd565b80632eb4a7ab1161016f578063630d7a341161013e578063630d7a34146103b35780636352211e146103cf5780636c0360eb1461040c57806370a0823114610437576101cd565b80632eb4a7ab1461031d5780633ccfd60b1461034857806342842e0e1461035f5780635c60da1b14610388576101cd565b8063081812fc116101ab578063081812fc14610265578063095ea7b3146102a257806323b872dd146102cb5780632cdae39b146102f4576101cd565b806301ffc9a7146101d2578063033263e51461020f57806306fdde031461023a575b600080fd5b3480156101de57600080fd5b506101f960048036038101906101f49190612d38565b61074d565b60405161020691906135a8565b60405180910390f35b34801561021b57600080fd5b5061022461082f565b604051610231919061393b565b60405180910390f35b34801561024657600080fd5b5061024f610835565b60405161025c91906135f9565b60405180910390f35b34801561027157600080fd5b5061028c60048036038101906102879190612e0a565b6108c7565b60405161029991906134fc565b60405180910390f35b3480156102ae57600080fd5b506102c960048036038101906102c49190612cf8565b61094c565b005b3480156102d757600080fd5b506102f260048036038101906102ed9190612be2565b610a64565b005b34801561030057600080fd5b5061031b60048036038101906103169190612e37565b610ac4565b005b34801561032957600080fd5b50610332610ad2565b60405161033f91906135c3565b60405180910390f35b34801561035457600080fd5b5061035d610af6565b005b34801561036b57600080fd5b5061038660048036038101906103819190612be2565b610b85565b005b34801561039457600080fd5b5061039d610ba5565b6040516103aa91906134fc565b60405180910390f35b6103cd60048036038101906103c89190612e93565b610bcb565b005b3480156103db57600080fd5b506103f660048036038101906103f19190612e0a565b610f0c565b60405161040391906134fc565b60405180910390f35b34801561041857600080fd5b50610421610fbe565b60405161042e91906135f9565b60405180910390f35b34801561044357600080fd5b5061045e60048036038101906104599190612b75565b61104c565b60405161046b919061393b565b60405180910390f35b34801561048057600080fd5b50610489611104565b005b34801561049757600080fd5b506104b260048036038101906104ad9190612d92565b61118c565b6040516104bf919061393b565b60405180910390f35b3480156104d457600080fd5b506104dd611277565b6040516104ea919061393b565b60405180910390f35b3480156104ff57600080fd5b50610508611283565b60405161051591906134fc565b60405180910390f35b34801561052a57600080fd5b506105336112ad565b60405161054091906135f9565b60405180910390f35b34801561055557600080fd5b50610570600480360381019061056b9190612e0a565b61133f565b60405161057d91906135a8565b60405180910390f35b34801561059257600080fd5b506105ad60048036038101906105a89190612cb8565b611395565b005b3480156105bb57600080fd5b506105c4611516565b6040516105d191906135a8565b60405180910390f35b3480156105e657600080fd5b506105ef611529565b6040516105fc919061393b565b60405180910390f35b34801561061157600080fd5b5061062c60048036038101906106279190612e0a565b61152f565b60405161063991906135de565b60405180910390f35b34801561064e57600080fd5b5061066960048036038101906106649190612e0a565b61158d565b6040516106789392919061399b565b60405180910390f35b34801561068d57600080fd5b506106a860048036038101906106a39190612c35565b6115e1565b005b3480156106b657600080fd5b506106d160048036038101906106cc9190612e0a565b611643565b6040516106de91906135f9565b60405180910390f35b3480156106f357600080fd5b5061070e60048036038101906107099190612ba2565b611795565b60405161071b91906135a8565b60405180910390f35b34801561073057600080fd5b5061074b60048036038101906107469190612b75565b611829565b005b60007f80ac58cd000000000000000000000000000000000000000000000000000000007bffffffffffffffffffffffffffffffffffffffffffffffffffffffff1916827bffffffffffffffffffffffffffffffffffffffffffffffffffffffff1916148061081857507f5b5e139f000000000000000000000000000000000000000000000000000000007bffffffffffffffffffffffffffffffffffffffffffffffffffffffff1916827bffffffffffffffffffffffffffffffffffffffffffffffffffffffff1916145b80610828575061082782611921565b5b9050919050565b6103e881565b60606000805461084490613cca565b80601f016020809104026020016040519081016040528092919081815260200182805461087090613cca565b80156108bd5780601f10610892576101008083540402835291602001916108bd565b820191906000526020600020905b8154815290600101906020018083116108a057829003601f168201915b5050505050905090565b60006108d28261198b565b610911576040517f08c379a00000000000000000000000000000000000000000000000000000000081526004016109089061381b565b60405180910390fd5b6004600083815260200190815260200160002060009054906101000a900473ffffffffffffffffffffffffffffffffffffffff169050919050565b600061095782610f0c565b90508073ffffffffffffffffffffffffffffffffffffffff168373ffffffffffffffffffffffffffffffffffffffff1614156109c8576040517f08c379a00000000000000000000000000000000000000000000000000000000081526004016109bf9061389b565b60405180910390fd5b8073ffffffffffffffffffffffffffffffffffffffff166109e76119f7565b73ffffffffffffffffffffffffffffffffffffffff161480610a165750610a1581610a106119f7565b611795565b5b610a55576040517f08c379a0000000000000000000000000000000000000000000000000000000008152600401610a4c9061375b565b60405180910390fd5b610a5f83836119ff565b505050565b610a75610a6f6119f7565b82611ab8565b610ab4576040517f08c379a0000000000000000000000000000000000000000000000000000000008152600401610aab906138bb565b60405180910390fd5b610abf838383611b96565b505050565b610ace8282611df2565b5050565b7f000000000000000000000000000000000000000000000000000000000000000081565b610afe6119f7565b73ffffffffffffffffffffffffffffffffffffffff16610b1c611283565b73ffffffffffffffffffffffffffffffffffffffff1614610b72576040517f08c379a0000000000000000000000000000000000000000000000000000000008152600401610b699061383b565b60405180910390fd5b610b83610b7d611283565b47611e66565b565b610ba0838383604051806020016040528060008152506115e1565b505050565b600960009054906101000a900473ffffffffffffffffffffffffffffffffffffffff1681565b610bd48761133f565b15610c14576040517f08c379a0000000000000000000000000000000000000000000000000000000008152600401610c0b9061391b565b60405180910390fd5b6103e8600c5410610c5a576040517f08c379a0000000000000000000000000000000000000000000000000000000008152600401610c51906138fb565b60405180910390fd5b67016345785d8a0000341015610ca5576040517f08c379a0000000000000000000000000000000000000000000000000000000008152600401610c9c9061373b565b60405180910390fd5b600087878787604051602001610cbe94939291906134ae565b604051602081830303815290604052805190602001209050610d42848480806020026020016040519081016040528093929190818152602001838360200280828437600081840152601f19601f820116905080830192505050505050507f000000000000000000000000000000000000000000000000000000000000000083611f5a565b610d81576040517f08c379a0000000000000000000000000000000000000000000000000000000008152600401610d78906138db565b60405180910390fd5b610d8a88612010565b600f60405180606001604052808960ff1681526020018860ff16815260200187815250908060018154018082558091505060019003906000526020600020906002020160009091909190915060008201518160000160006101000a81548160ff021916908360ff16021790555060208201518160000160016101000a81548160ff021916908360ff160217905550604082015181600101555050610e2e338961206a565b610e388883611df2565b600c6000815480929190610e4b90613d2d565b9190505550610ec46040518060400160405280600481526020017f64656d6f000000000000000000000000000000000000000000000000000000008152506040518060400160405280600181526020017f640000000000000000000000000000000000000000000000000000000000000081525061118c565b507f6c0aadbf90daad59a1e28294a18cdfe6096e2f2de2c1acd92d4fb4bb5ddbf29588888888604051610efa9493929190613956565b60405180910390a15050505050505050565b6000806002600084815260200190815260200160002060009054906101000a900473ffffffffffffffffffffffffffffffffffffffff169050600073ffffffffffffffffffffffffffffffffffffffff168173ffffffffffffffffffffffffffffffffffffffff161415610fb5576040517f08c379a0000000000000000000000000000000000000000000000000000000008152600401610fac9061379b565b60405180910390fd5b80915050919050565b600b8054610fcb90613cca565b80601f0160208091040260200160405190810160405280929190818152602001828054610ff790613cca565b80156110445780601f1061101957610100808354040283529160200191611044565b820191906000526020600020905b81548152906001019060200180831161102757829003601f168201915b505050505081565b60008073ffffffffffffffffffffffffffffffffffffffff168273ffffffffffffffffffffffffffffffffffffffff1614156110bd576040517f08c379a00000000000000000000000000000000000000000000000000000000081526004016110b49061377b565b60405180910390fd5b600360008373ffffffffffffffffffffffffffffffffffffffff1673ffffffffffffffffffffffffffffffffffffffff168152602001908152602001600020549050919050565b61110c6119f7565b73ffffffffffffffffffffffffffffffffffffffff1661112a611283565b73ffffffffffffffffffffffffffffffffffffffff1614611180576040517f08c379a00000000000000000000000000000000000000000000000000000000081526004016111779061383b565b60405180910390fd5b61118a6000612238565b565b60008061119960086122fe565b905060006111f1600960009054906101000a900473ffffffffffffffffffffffffffffffffffffffff16836040516020016111d49190613493565b6040516020818303038152906040526111ec90613bfd565b61230c565b90508073ffffffffffffffffffffffffffffffffffffffff1663906571473387876040518463ffffffff1660e01b815260040161123093929190613563565b600060405180830381600087803b15801561124a57600080fd5b505af115801561125e573d6000803e3d6000fd5b5050505061126c60086123e3565b819250505092915050565b60088060000154905081565b6000600760009054906101000a900473ffffffffffffffffffffffffffffffffffffffff16905090565b6060600180546112bc90613cca565b80601f01602080910402602001604051908101604052809291908181526020018280546112e890613cca565b80156113355780601f1061130a57610100808354040283529160200191611335565b820191906000526020600020905b81548152906001019060200180831161131857829003601f168201915b5050505050905090565b600080610100836113509190613b0d565b90506000610100846113629190613d9c565b90506000600d60008481526020019081526020016000205490506000826001901b90508081831614945050505050919050565b61139d6119f7565b73ffffffffffffffffffffffffffffffffffffffff168273ffffffffffffffffffffffffffffffffffffffff16141561140b576040517f08c379a00000000000000000000000000000000000000000000000000000000081526004016114029061369b565b60405180910390fd5b80600560006114186119f7565b73ffffffffffffffffffffffffffffffffffffffff1673ffffffffffffffffffffffffffffffffffffffff16815260200190815260200160002060008473ffffffffffffffffffffffffffffffffffffffff1673ffffffffffffffffffffffffffffffffffffffff16815260200190815260200160002060006101000a81548160ff0219169083151502179055508173ffffffffffffffffffffffffffffffffffffffff166114c56119f7565b73ffffffffffffffffffffffffffffffffffffffff167f17307eab39ab6107e8899845ad3d59bd9653f200f220920489ca2b5937696c318360405161150a91906135a8565b60405180910390a35050565b600e60009054906101000a900460ff1681565b600c5481565b6000611586600960009054906101000a900473ffffffffffffffffffffffffffffffffffffffff16836040516020016115689190613493565b60405160208183030381529060405261158090613bfd565b306123f9565b9050919050565b600f818154811061159d57600080fd5b90600052602060002090600202016000915090508060000160009054906101000a900460ff16908060000160019054906101000a900460ff16908060010154905083565b6115f26115ec6119f7565b83611ab8565b611631576040517f08c379a0000000000000000000000000000000000000000000000000000000008152600401611628906138bb565b60405180910390fd5b61163d84848484612479565b50505050565b606061164e8261198b565b61168d576040517f08c379a0000000000000000000000000000000000000000000000000000000008152600401611684906137fb565b60405180910390fd5b60006006600084815260200190815260200160002080546116ad90613cca565b80601f01602080910402602001604051908101604052809291908181526020018280546116d990613cca565b80156117265780601f106116fb57610100808354040283529160200191611726565b820191906000526020600020905b81548152906001019060200180831161170957829003601f168201915b5050505050905060006117376124d5565b905060008151141561174d578192505050611790565b60008251111561178257808260405160200161176a92919061345a565b60405160208183030381529060405292505050611790565b61178b84612567565b925050505b919050565b6000600560008473ffffffffffffffffffffffffffffffffffffffff1673ffffffffffffffffffffffffffffffffffffffff16815260200190815260200160002060008373ffffffffffffffffffffffffffffffffffffffff1673ffffffffffffffffffffffffffffffffffffffff16815260200190815260200160002060009054906101000a900460ff16905092915050565b6118316119f7565b73ffffffffffffffffffffffffffffffffffffffff1661184f611283565b73ffffffffffffffffffffffffffffffffffffffff16146118a5576040517f08c379a000000000000000000000000000000000000000000000000000000000815260040161189c9061383b565b60405180910390fd5b600073ffffffffffffffffffffffffffffffffffffffff168173ffffffffffffffffffffffffffffffffffffffff161415611915576040517f08c379a000000000000000000000000000000000000000000000000000000000815260040161190c9061363b565b60405180910390fd5b61191e81612238565b50565b60007f01ffc9a7000000000000000000000000000000000000000000000000000000007bffffffffffffffffffffffffffffffffffffffffffffffffffffffff1916827bffffffffffffffffffffffffffffffffffffffffffffffffffffffff1916149050919050565b60008073ffffffffffffffffffffffffffffffffffffffff166002600084815260200190815260200160002060009054906101000a900473ffffffffffffffffffffffffffffffffffffffff1673ffffffffffffffffffffffffffffffffffffffff1614159050919050565b600033905090565b816004600083815260200190815260200160002060006101000a81548173ffffffffffffffffffffffffffffffffffffffff021916908373ffffffffffffffffffffffffffffffffffffffff160217905550808273ffffffffffffffffffffffffffffffffffffffff16611a7283610f0c565b73ffffffffffffffffffffffffffffffffffffffff167f8c5be1e5ebec7d5bd14f71427d1e84f3dd0314c0f7b2291e5b200ac8c7c3b92560405160405180910390a45050565b6000611ac38261198b565b611b02576040517f08c379a0000000000000000000000000000000000000000000000000000000008152600401611af99061371b565b60405180910390fd5b6000611b0d83610f0c565b90508073ffffffffffffffffffffffffffffffffffffffff168473ffffffffffffffffffffffffffffffffffffffff161480611b7c57508373ffffffffffffffffffffffffffffffffffffffff16611b64846108c7565b73ffffffffffffffffffffffffffffffffffffffff16145b80611b8d5750611b8c8185611795565b5b91505092915050565b8273ffffffffffffffffffffffffffffffffffffffff16611bb682610f0c565b73ffffffffffffffffffffffffffffffffffffffff1614611c0c576040517f08c379a0000000000000000000000000000000000000000000000000000000008152600401611c039061385b565b60405180910390fd5b600073ffffffffffffffffffffffffffffffffffffffff168273ffffffffffffffffffffffffffffffffffffffff161415611c7c576040517f08c379a0000000000000000000000000000000000000000000000000000000008152600401611c739061367b565b60405180910390fd5b611c8783838361260e565b611c926000826119ff565b6001600360008573ffffffffffffffffffffffffffffffffffffffff1673ffffffffffffffffffffffffffffffffffffffff1681526020019081526020016000206000828254611ce29190613b3e565b925050819055506001600360008473ffffffffffffffffffffffffffffffffffffffff1673ffffffffffffffffffffffffffffffffffffffff1681526020019081526020016000206000828254611d399190613ab7565b92505081905550816002600083815260200190815260200160002060006101000a81548173ffffffffffffffffffffffffffffffffffffffff021916908373ffffffffffffffffffffffffffffffffffffffff160217905550808273ffffffffffffffffffffffffffffffffffffffff168473ffffffffffffffffffffffffffffffffffffffff167fddf252ad1be2c89b69c2b068fc378daa952ba7f163c4a11628f55a4df523b3ef60405160405180910390a4505050565b611dfb8261198b565b611e3a576040517f08c379a0000000000000000000000000000000000000000000000000000000008152600401611e31906137bb565b60405180910390fd5b80600660008481526020019081526020016000209080519060200190611e6192919061291e565b505050565b80471015611ea9576040517f08c379a0000000000000000000000000000000000000000000000000000000008152600401611ea0906136fb565b60405180910390fd5b60008273ffffffffffffffffffffffffffffffffffffffff1682604051611ecf9061347e565b60006040518083038185875af1925050503d8060008114611f0c576040519150601f19603f3d011682016040523d82523d6000602084013e611f11565b606091505b5050905080611f55576040517f08c379a0000000000000000000000000000000000000000000000000000000008152600401611f4c906136db565b60405180910390fd5b505050565b60008082905060005b8551811015612002576000868281518110611f8157611f80613e5a565b5b60200260200101519050808311611fc2578281604051602001611fa592919061342e565b604051602081830303815290604052805190602001209250611fee565b8083604051602001611fd592919061342e565b6040516020818303038152906040528051906020012092505b508080611ffa90613d2d565b915050611f63565b508381149150509392505050565b6000610100826120209190613b0d565b90506000610100836120329190613d9c565b9050806001901b600d60008481526020019081526020016000205417600d600084815260200190815260200160002081905550505050565b600073ffffffffffffffffffffffffffffffffffffffff168273ffffffffffffffffffffffffffffffffffffffff1614156120da576040517f08c379a00000000000000000000000000000000000000000000000000000000081526004016120d1906137db565b60405180910390fd5b6120e38161198b565b15612123576040517f08c379a000000000000000000000000000000000000000000000000000000000815260040161211a9061365b565b60405180910390fd5b61212f6000838361260e565b6001600360008473ffffffffffffffffffffffffffffffffffffffff1673ffffffffffffffffffffffffffffffffffffffff168152602001908152602001600020600082825461217f9190613ab7565b92505081905550816002600083815260200190815260200160002060006101000a81548173ffffffffffffffffffffffffffffffffffffffff021916908373ffffffffffffffffffffffffffffffffffffffff160217905550808273ffffffffffffffffffffffffffffffffffffffff16600073ffffffffffffffffffffffffffffffffffffffff167fddf252ad1be2c89b69c2b068fc378daa952ba7f163c4a11628f55a4df523b3ef60405160405180910390a45050565b6000600760009054906101000a900473ffffffffffffffffffffffffffffffffffffffff16905081600760006101000a81548173ffffffffffffffffffffffffffffffffffffffff021916908373ffffffffffffffffffffffffffffffffffffffff1602179055508173ffffffffffffffffffffffffffffffffffffffff168173ffffffffffffffffffffffffffffffffffffffff167f8be0079c531659141344cd1fd0a4f28419497f9722a3daafe3b4186f6b6457e060405160405180910390a35050565b600081600001549050919050565b60006040517f3d602d80600a3d3981f3363d3d373d3d3d363d7300000000000000000000000081528360601b60148201527f5af43d82803e903d91602b57fd5bf300000000000000000000000000000000006028820152826037826000f5915050600073ffffffffffffffffffffffffffffffffffffffff168173ffffffffffffffffffffffffffffffffffffffff1614156123dd576040517f08c379a00000000000000000000000000000000000000000000000000000000081526004016123d4906136bb565b60405180910390fd5b92915050565b6001816000016000828254019250508190555050565b60006040517f3d602d80600a3d3981f3363d3d373d3d3d363d7300000000000000000000000081528460601b60148201527f5af43d82803e903d91602b57fd5bf3ff0000000000000000000000000000000060288201528260601b603882015283604c82015260378120606c820152605560378201209150509392505050565b612484848484611b96565b61249084848484612613565b6124cf576040517f08c379a00000000000000000000000000000000000000000000000000000000081526004016124c69061361b565b60405180910390fd5b50505050565b6060600b80546124e490613cca565b80601f016020809104026020016040519081016040528092919081815260200182805461251090613cca565b801561255d5780601f106125325761010080835404028352916020019161255d565b820191906000526020600020905b81548152906001019060200180831161254057829003601f168201915b5050505050905090565b60606125728261198b565b6125b1576040517f08c379a00000000000000000000000000000000000000000000000000000000081526004016125a89061387b565b60405180910390fd5b60006125bb6124d5565b905060008151116125db5760405180602001604052806000815250612606565b806125e5846127aa565b6040516020016125f692919061345a565b6040516020818303038152906040525b915050919050565b505050565b60006126348473ffffffffffffffffffffffffffffffffffffffff1661290b565b1561279d578373ffffffffffffffffffffffffffffffffffffffff1663150b7a0261265d6119f7565b8786866040518563ffffffff1660e01b815260040161267f9493929190613517565b602060405180830381600087803b15801561269957600080fd5b505af19250505080156126ca57506040513d601f19601f820116820180604052508101906126c79190612d65565b60015b61274d573d80600081146126fa576040519150601f19603f3d011682016040523d82523d6000602084013e6126ff565b606091505b50600081511415612745576040517f08c379a000000000000000000000000000000000000000000000000000000000815260040161273c9061361b565b60405180910390fd5b805181602001fd5b63150b7a0260e01b7bffffffffffffffffffffffffffffffffffffffffffffffffffffffff1916817bffffffffffffffffffffffffffffffffffffffffffffffffffffffff1916149150506127a2565b600190505b949350505050565b606060008214156127f2576040518060400160405280600181526020017f30000000000000000000000000000000000000000000000000000000000000008152509050612906565b600082905060005b6000821461282457808061280d90613d2d565b915050600a8261281d9190613b0d565b91506127fa565b60008167ffffffffffffffff8111156128405761283f613e89565b5b6040519080825280601f01601f1916602001820160405280156128725781602001600182028036833780820191505090505b5090505b600085146128ff5760018261288b9190613b3e565b9150600a8561289a9190613d9c565b60306128a69190613ab7565b60f81b8183815181106128bc576128bb613e5a565b5b60200101907effffffffffffffffffffffffffffffffffffffffffffffffffffffffffffff1916908160001a905350600a856128f89190613b0d565b9450612876565b8093505050505b919050565b600080823b905060008111915050919050565b82805461292a90613cca565b90600052602060002090601f01602090048101928261294c5760008555612993565b82601f1061296557805160ff1916838001178555612993565b82800160010185558215612993579182015b82811115612992578251825591602001919060010190612977565b5b5090506129a091906129a4565b5090565b5b808211156129bd5760008160009055506001016129a5565b5090565b60006129d46129cf846139f7565b6139d2565b9050828152602081018484840111156129f0576129ef613edc565b5b6129fb848285613c88565b509392505050565b6000612a16612a1184613a28565b6139d2565b905082815260208101848484011115612a3257612a31613edc565b5b612a3d848285613c88565b509392505050565b600081359050612a548161457a565b92915050565b60008083601f840112612a7057612a6f613ed2565b5b8235905067ffffffffffffffff811115612a8d57612a8c613ecd565b5b602083019150836020820283011115612aa957612aa8613ed7565b5b9250929050565b600081359050612abf81614591565b92915050565b600081359050612ad4816145a8565b92915050565b600081519050612ae9816145a8565b92915050565b600082601f830112612b0457612b03613ed2565b5b8135612b148482602086016129c1565b91505092915050565b600082601f830112612b3257612b31613ed2565b5b8135612b42848260208601612a03565b91505092915050565b600081359050612b5a816145bf565b92915050565b600081359050612b6f816145d6565b92915050565b600060208284031215612b8b57612b8a613ee6565b5b6000612b9984828501612a45565b91505092915050565b60008060408385031215612bb957612bb8613ee6565b5b6000612bc785828601612a45565b9250506020612bd885828601612a45565b9150509250929050565b600080600060608486031215612bfb57612bfa613ee6565b5b6000612c0986828701612a45565b9350506020612c1a86828701612a45565b9250506040612c2b86828701612b4b565b9150509250925092565b60008060008060808587031215612c4f57612c4e613ee6565b5b6000612c5d87828801612a45565b9450506020612c6e87828801612a45565b9350506040612c7f87828801612b4b565b925050606085013567ffffffffffffffff811115612ca057612c9f613ee1565b5b612cac87828801612aef565b91505092959194509250565b60008060408385031215612ccf57612cce613ee6565b5b6000612cdd85828601612a45565b9250506020612cee85828601612ab0565b9150509250929050565b60008060408385031215612d0f57612d0e613ee6565b5b6000612d1d85828601612a45565b9250506020612d2e85828601612b4b565b9150509250929050565b600060208284031215612d4e57612d4d613ee6565b5b6000612d5c84828501612ac5565b91505092915050565b600060208284031215612d7b57612d7a613ee6565b5b6000612d8984828501612ada565b91505092915050565b60008060408385031215612da957612da8613ee6565b5b600083013567ffffffffffffffff811115612dc757612dc6613ee1565b5b612dd385828601612b1d565b925050602083013567ffffffffffffffff811115612df457612df3613ee1565b5b612e0085828601612b1d565b9150509250929050565b600060208284031215612e2057612e1f613ee6565b5b6000612e2e84828501612b4b565b91505092915050565b60008060408385031215612e4e57612e4d613ee6565b5b6000612e5c85828601612b4b565b925050602083013567ffffffffffffffff811115612e7d57612e7c613ee1565b5b612e8985828601612b1d565b9150509250929050565b600080600080600080600060c0888a031215612eb257612eb1613ee6565b5b6000612ec08a828b01612b4b565b9750506020612ed18a828b01612b60565b9650506040612ee28a828b01612b60565b9550506060612ef38a828b01612b4b565b945050608088013567ffffffffffffffff811115612f1457612f13613ee1565b5b612f208a828b01612a5a565b935093505060a088013567ffffffffffffffff811115612f4357612f42613ee1565b5b612f4f8a828b01612b1d565b91505092959891949750929550565b612f6781613b72565b82525050565b612f7681613b84565b82525050565b612f8581613b90565b82525050565b612f9c612f9782613b90565b613d76565b82525050565b6000612fad82613a69565b612fb78185613a7f565b9350612fc7818560208601613c97565b612fd081613eeb565b840191505092915050565b612fe481613c64565b82525050565b6000612ff582613a74565b612fff8185613a9b565b935061300f818560208601613c97565b61301881613eeb565b840191505092915050565b600061302e82613a74565b6130388185613aac565b9350613048818560208601613c97565b80840191505092915050565b6000613061603283613a9b565b915061306c82613f16565b604082019050919050565b6000613084602683613a9b565b915061308f82613f65565b604082019050919050565b60006130a7601c83613a9b565b91506130b282613fb4565b602082019050919050565b60006130ca602483613a9b565b91506130d582613fdd565b604082019050919050565b60006130ed601983613a9b565b91506130f88261402c565b602082019050919050565b6000613110601783613a9b565b915061311b82614055565b602082019050919050565b6000613133603a83613a9b565b915061313e8261407e565b604082019050919050565b6000613156601d83613a9b565b9150613161826140cd565b602082019050919050565b6000613179602c83613a9b565b9150613184826140f6565b604082019050919050565b600061319c602183613a9b565b91506131a782614145565b604082019050919050565b60006131bf603883613a9b565b91506131ca82614194565b604082019050919050565b60006131e2602a83613a9b565b91506131ed826141e3565b604082019050919050565b6000613205602983613a9b565b915061321082614232565b604082019050919050565b6000613228602e83613a9b565b915061323382614281565b604082019050919050565b600061324b602083613a9b565b9150613256826142d0565b602082019050919050565b600061326e603183613a9b565b9150613279826142f9565b604082019050919050565b6000613291602c83613a9b565b915061329c82614348565b604082019050919050565b60006132b4602083613a9b565b91506132bf82614397565b602082019050919050565b60006132d7602983613a9b565b91506132e2826143c0565b604082019050919050565b60006132fa602f83613a9b565b91506133058261440f565b604082019050919050565b600061331d602183613a9b565b91506133288261445e565b604082019050919050565b6000613340600083613a90565b915061334b826144ad565b600082019050919050565b6000613363603183613a9b565b915061336e826144b0565b604082019050919050565b6000613386600e83613a9b565b9150613391826144ff565b602082019050919050565b60006133a9601e83613a9b565b91506133b482614528565b602082019050919050565b60006133cc601583613a9b565b91506133d782614551565b602082019050919050565b6133eb81613be6565b82525050565b6134026133fd82613be6565b613d80565b82525050565b61341181613bf0565b82525050565b61342861342382613bf0565b613d8a565b82525050565b600061343a8285612f8b565b60208201915061344a8284612f8b565b6020820191508190509392505050565b60006134668285613023565b91506134728284613023565b91508190509392505050565b600061348982613333565b9150819050919050565b600061349f82846133f1565b60208201915081905092915050565b60006134ba82876133f1565b6020820191506134ca8286613417565b6001820191506134da8285613417565b6001820191506134ea82846133f1565b60208201915081905095945050505050565b60006020820190506135116000830184612f5e565b92915050565b600060808201905061352c6000830187612f5e565b6135396020830186612f5e565b61354660408301856133e2565b81810360608301526135588184612fa2565b905095945050505050565b60006060820190506135786000830186612f5e565b818103602083015261358a8185612fea565b9050818103604083015261359e8184612fea565b9050949350505050565b60006020820190506135bd6000830184612f6d565b92915050565b60006020820190506135d86000830184612f7c565b92915050565b60006020820190506135f36000830184612fdb565b92915050565b600060208201905081810360008301526136138184612fea565b905092915050565b6000602082019050818103600083015261363481613054565b9050919050565b6000602082019050818103600083015261365481613077565b9050919050565b600060208201905081810360008301526136748161309a565b9050919050565b60006020820190508181036000830152613694816130bd565b9050919050565b600060208201905081810360008301526136b4816130e0565b9050919050565b600060208201905081810360008301526136d481613103565b9050919050565b600060208201905081810360008301526136f481613126565b9050919050565b6000602082019050818103600083015261371481613149565b9050919050565b600060208201905081810360008301526137348161316c565b9050919050565b600060208201905081810360008301526137548161318f565b9050919050565b60006020820190508181036000830152613774816131b2565b9050919050565b60006020820190508181036000830152613794816131d5565b9050919050565b600060208201905081810360008301526137b4816131f8565b9050919050565b600060208201905081810360008301526137d48161321b565b9050919050565b600060208201905081810360008301526137f48161323e565b9050919050565b6000602082019050818103600083015261381481613261565b9050919050565b6000602082019050818103600083015261383481613284565b9050919050565b60006020820190508181036000830152613854816132a7565b9050919050565b60006020820190508181036000830152613874816132ca565b9050919050565b60006020820190508181036000830152613894816132ed565b9050919050565b600060208201905081810360008301526138b481613310565b9050919050565b600060208201905081810360008301526138d481613356565b9050919050565b600060208201905081810360008301526138f481613379565b9050919050565b600060208201905081810360008301526139148161339c565b9050919050565b60006020820190508181036000830152613934816133bf565b9050919050565b600060208201905061395060008301846133e2565b92915050565b600060808201905061396b60008301876133e2565b6139786020830186613408565b6139856040830185613408565b61399260608301846133e2565b95945050505050565b60006060820190506139b06000830186613408565b6139bd6020830185613408565b6139ca60408301846133e2565b949350505050565b60006139dc6139ed565b90506139e88282613cfc565b919050565b6000604051905090565b600067ffffffffffffffff821115613a1257613a11613e89565b5b613a1b82613eeb565b9050602081019050919050565b600067ffffffffffffffff821115613a4357613a42613e89565b5b613a4c82613eeb565b9050602081019050919050565b6000819050602082019050919050565b600081519050919050565b600081519050919050565b600082825260208201905092915050565b600081905092915050565b600082825260208201905092915050565b600081905092915050565b6000613ac282613be6565b9150613acd83613be6565b9250827fffffffffffffffffffffffffffffffffffffffffffffffffffffffffffffffff03821115613b0257613b01613dcd565b5b828201905092915050565b6000613b1882613be6565b9150613b2383613be6565b925082613b3357613b32613dfc565b5b828204905092915050565b6000613b4982613be6565b9150613b5483613be6565b925082821015613b6757613b66613dcd565b5b828203905092915050565b6000613b7d82613bc6565b9050919050565b60008115159050919050565b6000819050919050565b60007fffffffff0000000000000000000000000000000000000000000000000000000082169050919050565b600073ffffffffffffffffffffffffffffffffffffffff82169050919050565b6000819050919050565b600060ff82169050919050565b6000613c0882613a69565b82613c1284613a59565b9050613c1d81613eb8565b92506020821015613c5d57613c587fffffffffffffffffffffffffffffffffffffffffffffffffffffffffffffffff83602003600802613f09565b831692505b5050919050565b6000613c6f82613c76565b9050919050565b6000613c8182613bc6565b9050919050565b82818337600083830152505050565b60005b83811015613cb5578082015181840152602081019050613c9a565b83811115613cc4576000848401525b50505050565b60006002820490506001821680613ce257607f821691505b60208210811415613cf657613cf5613e2b565b5b50919050565b613d0582613eeb565b810181811067ffffffffffffffff82111715613d2457613d23613e89565b5b80604052505050565b6000613d3882613be6565b91507fffffffffffffffffffffffffffffffffffffffffffffffffffffffffffffffff821415613d6b57613d6a613dcd565b5b600182019050919050565b6000819050919050565b6000819050919050565b6000613d9582613efc565b9050919050565b6000613da782613be6565b9150613db283613be6565b925082613dc257613dc1613dfc565b5b828206905092915050565b7f4e487b7100000000000000000000000000000000000000000000000000000000600052601160045260246000fd5b7f4e487b7100000000000000000000000000000000000000000000000000000000600052601260045260246000fd5b7f4e487b7100000000000000000000000000000000000000000000000000000000600052602260045260246000fd5b7f4e487b7100000000000000000000000000000000000000000000000000000000600052603260045260246000fd5b7f4e487b7100000000000000000000000000000000000000000000000000000000600052604160045260246000fd5b6000613ec48251613b90565b80915050919050565b600080fd5b600080fd5b600080fd5b600080fd5b600080fd5b600080fd5b6000601f19601f8301169050919050565b60008160f81b9050919050565b600082821b905092915050565b7f4552433732313a207472616e7366657220746f206e6f6e20455243373231526560008201527f63656976657220696d706c656d656e7465720000000000000000000000000000602082015250565b7f4f776e61626c653a206e6577206f776e657220697320746865207a65726f206160008201527f6464726573730000000000000000000000000000000000000000000000000000602082015250565b7f4552433732313a20746f6b656e20616c7265616479206d696e74656400000000600082015250565b7f4552433732313a207472616e7366657220746f20746865207a65726f2061646460008201527f7265737300000000000000000000000000000000000000000000000000000000602082015250565b7f4552433732313a20617070726f766520746f2063616c6c657200000000000000600082015250565b7f455243313136373a2063726561746532206661696c6564000000000000000000600082015250565b7f416464726573733a20756e61626c6520746f2073656e642076616c75652c207260008201527f6563697069656e74206d61792068617665207265766572746564000000000000602082015250565b7f416464726573733a20696e73756666696369656e742062616c616e6365000000600082015250565b7f4552433732313a206f70657261746f7220717565727920666f72206e6f6e657860008201527f697374656e7420746f6b656e0000000000000000000000000000000000000000602082015250565b7f4e6f7420656e6f756768204554482073656e743a20636865636b20707269636560008201527f2e00000000000000000000000000000000000000000000000000000000000000602082015250565b7f4552433732313a20617070726f76652063616c6c6572206973206e6f74206f7760008201527f6e6572206e6f7220617070726f76656420666f7220616c6c0000000000000000602082015250565b7f4552433732313a2062616c616e636520717565727920666f7220746865207a6560008201527f726f206164647265737300000000000000000000000000000000000000000000602082015250565b7f4552433732313a206f776e657220717565727920666f72206e6f6e657869737460008201527f656e7420746f6b656e0000000000000000000000000000000000000000000000602082015250565b7f45524337323155524953746f726167653a2055524920736574206f66206e6f6e60008201527f6578697374656e7420746f6b656e000000000000000000000000000000000000602082015250565b7f4552433732313a206d696e7420746f20746865207a65726f2061646472657373600082015250565b7f45524337323155524953746f726167653a2055524920717565727920666f722060008201527f6e6f6e6578697374656e7420746f6b656e000000000000000000000000000000602082015250565b7f4552433732313a20617070726f76656420717565727920666f72206e6f6e657860008201527f697374656e7420746f6b656e0000000000000000000000000000000000000000602082015250565b7f4f776e61626c653a2063616c6c6572206973206e6f7420746865206f776e6572600082015250565b7f4552433732313a207472616e73666572206f6620746f6b656e2074686174206960008201527f73206e6f74206f776e0000000000000000000000000000000000000000000000602082015250565b7f4552433732314d657461646174613a2055524920717565727920666f72206e6f60008201527f6e6578697374656e7420746f6b656e0000000000000000000000000000000000602082015250565b7f4552433732313a20617070726f76616c20746f2063757272656e74206f776e6560008201527f7200000000000000000000000000000000000000000000000000000000000000602082015250565b50565b7f4552433732313a207472616e736665722063616c6c6572206973206e6f74206f60008201527f776e6572206e6f7220617070726f766564000000000000000000000000000000602082015250565b7f496e76616c69642070726f6f662e000000000000000000000000000000000000600082015250565b7f416c6c206361737365747465732068617665206265656e206d696e7465640000600082015250565b7f5461706520616c726561647920636c61696d65642e0000000000000000000000600082015250565b61458381613b72565b811461458e57600080fd5b50565b61459a81613b84565b81146145a557600080fd5b50565b6145b181613b9a565b81146145bc57600080fd5b50565b6145c881613be6565b81146145d357600080fd5b50565b6145df81613bf0565b81146145ea57600080fd5b5056fea2646970667358221220e0bf5f8263dbef5c289aa84cfb28085f2121c1e975f32f247fafeeee49b4dd5b64736f6c63430008060033",
  "devdoc": {
    "kind": "dev",
    "methods": {
      "approve(address,uint256)": {
        "details": "See {IERC721-approve}."
      },
      "balanceOf(address)": {
        "details": "See {IERC721-balanceOf}."
      },
      "createSubtapeFactory(string,string)": {
        "details": "note:I want this function to be callable from the inheriting contract. I am not super great at solidity yet, so I'm not totally sure what these access modifiers do. I had it set as external but I was not able to call it from the inheriting function when it was external. Public was the only way I could call it from the inheriting function AND test the functionality of this contract on its own (sort of like unit testing the contract vs integration testing the main contract) Anyways, I'm not sure if thats the right way to go about it, so if these contracts get audited that is something I would want to check so I'm making a point of it here."
      },
      "editMixtape(uint256,string)": {
        "details": "function for changing metadata on Cassette note: you could independently call this outside of the dapp and add as many songs as you'd like. There is no technical constraint imposing capacity within this solidity contract, its all front-end. ------------------------------------------------- interesting question about what it means to own an NFT? are you buying it for the NFT (data) or ability to use experience"
      },
      "getApproved(uint256)": {
        "details": "See {IERC721-getApproved}."
      },
      "isApprovedForAll(address,address)": {
        "details": "See {IERC721-isApprovedForAll}."
      },
      "name()": {
        "details": "See {IERC721Metadata-name}."
      },
      "owner()": {
        "details": "Returns the address of the current owner."
      },
      "ownerOf(uint256)": {
        "details": "See {IERC721-ownerOf}."
      },
      "renounceOwnership()": {
        "details": "Leaves the contract without owner. It will not be possible to call `onlyOwner` functions anymore. Can only be called by the current owner. NOTE: Renouncing ownership will leave the contract without an owner, thereby removing any functionality that is only available to the owner."
      },
      "safeTransferFrom(address,address,uint256)": {
        "details": "See {IERC721-safeTransferFrom}."
      },
      "safeTransferFrom(address,address,uint256,bytes)": {
        "details": "See {IERC721-safeTransferFrom}."
      },
      "setApprovalForAll(address,bool)": {
        "details": "See {IERC721-setApprovalForAll}."
      },
      "supportsInterface(bytes4)": {
        "details": "See {IERC165-supportsInterface}."
      },
      "symbol()": {
        "details": "See {IERC721Metadata-symbol}."
      },
      "tokenURI(uint256)": {
        "details": "See {IERC721Metadata-tokenURI}."
      },
      "transferFrom(address,address,uint256)": {
        "details": "See {IERC721-transferFrom}."
      },
      "transferOwnership(address)": {
        "details": "Transfers ownership of the contract to a new account (`newOwner`). Can only be called by the current owner."
      }
    },
    "stateVariables": {
      "mixes": {
        "details": "An array containing the Mix struct for all 1000 Mixtapes."
      }
    },
    "version": 1
  },
  "userdoc": {
    "kind": "user",
    "methods": {
      "contractCount()": {
        "notice": "Counter for current contract id upgraded making this public for debugging reasons but we can make it private again in a bit"
      },
      "createSubtapeFactory(string,string)": {
        "notice": "Creates a subtape factory."
      },
      "withdraw()": {
        "notice": "todo: need to look into reentrency hacks? the OZ docs were warning about that"
      }
    },
    "version": 1
  },
  "storageLayout": {
    "storage": [
      {
        "astId": 2033,
        "contract": "contracts/Mixtape.sol:Mixtape",
        "label": "_name",
        "offset": 0,
        "slot": "0",
        "type": "t_string_storage"
      },
      {
        "astId": 2035,
        "contract": "contracts/Mixtape.sol:Mixtape",
        "label": "_symbol",
        "offset": 0,
        "slot": "1",
        "type": "t_string_storage"
      },
      {
        "astId": 2039,
        "contract": "contracts/Mixtape.sol:Mixtape",
        "label": "_owners",
        "offset": 0,
        "slot": "2",
        "type": "t_mapping(t_uint256,t_address)"
      },
      {
        "astId": 2043,
        "contract": "contracts/Mixtape.sol:Mixtape",
        "label": "_balances",
        "offset": 0,
        "slot": "3",
        "type": "t_mapping(t_address,t_uint256)"
      },
      {
        "astId": 2047,
        "contract": "contracts/Mixtape.sol:Mixtape",
        "label": "_tokenApprovals",
        "offset": 0,
        "slot": "4",
        "type": "t_mapping(t_uint256,t_address)"
      },
      {
        "astId": 2053,
        "contract": "contracts/Mixtape.sol:Mixtape",
        "label": "_operatorApprovals",
        "offset": 0,
        "slot": "5",
        "type": "t_mapping(t_address,t_mapping(t_address,t_bool))"
      },
      {
        "astId": 3308,
        "contract": "contracts/Mixtape.sol:Mixtape",
        "label": "_tokenURIs",
        "offset": 0,
        "slot": "6",
        "type": "t_mapping(t_uint256,t_string_storage)"
      },
      {
        "astId": 1831,
        "contract": "contracts/Mixtape.sol:Mixtape",
        "label": "_owner",
        "offset": 0,
        "slot": "7",
        "type": "t_address"
      },
      {
        "astId": 4765,
        "contract": "contracts/Mixtape.sol:Mixtape",
        "label": "contractCount",
        "offset": 0,
        "slot": "8",
        "type": "t_struct(Counter)3806_storage"
      },
      {
        "astId": 4767,
        "contract": "contracts/Mixtape.sol:Mixtape",
        "label": "implementation",
        "offset": 0,
        "slot": "9",
        "type": "t_address"
      },
      {
        "astId": 4250,
        "contract": "contracts/Mixtape.sol:Mixtape",
        "label": "_tokenIds",
        "offset": 0,
        "slot": "10",
        "type": "t_struct(Counter)3806_storage"
      },
      {
        "astId": 4252,
        "contract": "contracts/Mixtape.sol:Mixtape",
        "label": "baseURI",
        "offset": 0,
        "slot": "11",
        "type": "t_string_storage"
      },
      {
        "astId": 4254,
        "contract": "contracts/Mixtape.sol:Mixtape",
        "label": "cassettesCreatedCount",
        "offset": 0,
        "slot": "12",
        "type": "t_uint256"
      },
      {
        "astId": 4264,
        "contract": "contracts/Mixtape.sol:Mixtape",
        "label": "claimedBitMap",
        "offset": 0,
        "slot": "13",
        "type": "t_mapping(t_uint256,t_uint256)"
      },
      {
        "astId": 4267,
        "contract": "contracts/Mixtape.sol:Mixtape",
        "label": "allCassettesClaimed",
        "offset": 0,
        "slot": "14",
        "type": "t_bool"
      },
      {
        "astId": 4279,
        "contract": "contracts/Mixtape.sol:Mixtape",
        "label": "mixes",
        "offset": 0,
        "slot": "15",
        "type": "t_array(t_struct(Mix)4274_storage)dyn_storage"
      }
    ],
    "types": {
      "t_address": {
        "encoding": "inplace",
        "label": "address",
        "numberOfBytes": "20"
      },
      "t_array(t_struct(Mix)4274_storage)dyn_storage": {
        "base": "t_struct(Mix)4274_storage",
        "encoding": "dynamic_array",
        "label": "struct Mixtape.Mix[]",
        "numberOfBytes": "32"
      },
      "t_bool": {
        "encoding": "inplace",
        "label": "bool",
        "numberOfBytes": "1"
      },
      "t_mapping(t_address,t_bool)": {
        "encoding": "mapping",
        "key": "t_address",
        "label": "mapping(address => bool)",
        "numberOfBytes": "32",
        "value": "t_bool"
      },
      "t_mapping(t_address,t_mapping(t_address,t_bool))": {
        "encoding": "mapping",
        "key": "t_address",
        "label": "mapping(address => mapping(address => bool))",
        "numberOfBytes": "32",
        "value": "t_mapping(t_address,t_bool)"
      },
      "t_mapping(t_address,t_uint256)": {
        "encoding": "mapping",
        "key": "t_address",
        "label": "mapping(address => uint256)",
        "numberOfBytes": "32",
        "value": "t_uint256"
      },
      "t_mapping(t_uint256,t_address)": {
        "encoding": "mapping",
        "key": "t_uint256",
        "label": "mapping(uint256 => address)",
        "numberOfBytes": "32",
        "value": "t_address"
      },
      "t_mapping(t_uint256,t_string_storage)": {
        "encoding": "mapping",
        "key": "t_uint256",
        "label": "mapping(uint256 => string)",
        "numberOfBytes": "32",
        "value": "t_string_storage"
      },
      "t_mapping(t_uint256,t_uint256)": {
        "encoding": "mapping",
        "key": "t_uint256",
        "label": "mapping(uint256 => uint256)",
        "numberOfBytes": "32",
        "value": "t_uint256"
      },
      "t_string_storage": {
        "encoding": "bytes",
        "label": "string",
        "numberOfBytes": "32"
      },
      "t_struct(Counter)3806_storage": {
        "encoding": "inplace",
        "label": "struct Counters.Counter",
        "members": [
          {
            "astId": 3805,
            "contract": "contracts/Mixtape.sol:Mixtape",
            "label": "_value",
            "offset": 0,
            "slot": "0",
            "type": "t_uint256"
          }
        ],
        "numberOfBytes": "32"
      },
      "t_struct(Mix)4274_storage": {
        "encoding": "inplace",
        "label": "struct Mixtape.Mix",
        "members": [
          {
            "astId": 4269,
            "contract": "contracts/Mixtape.sol:Mixtape",
            "label": "capacity",
            "offset": 0,
            "slot": "0",
            "type": "t_uint8"
          },
          {
            "astId": 4271,
            "contract": "contracts/Mixtape.sol:Mixtape",
            "label": "quality",
            "offset": 1,
            "slot": "0",
            "type": "t_uint8"
          },
          {
            "astId": 4273,
            "contract": "contracts/Mixtape.sol:Mixtape",
            "label": "style",
            "offset": 0,
            "slot": "1",
            "type": "t_uint256"
          }
        ],
        "numberOfBytes": "64"
      },
      "t_uint256": {
        "encoding": "inplace",
        "label": "uint256",
        "numberOfBytes": "32"
      },
      "t_uint8": {
        "encoding": "inplace",
        "label": "uint8",
        "numberOfBytes": "1"
      }
    }
  }
}